:020000040800F2
:1000000098CE0024AD020008B17E00089178000867
:10001000597D00085111000811AD000800000000D2
:100020000000000000000000000000001181000836
:10003000F915000800000000B97E00085192000880
:10004000CB020008CB020008CB020008CB0200085C
:10005000CB020008CB020008CB020008CB0200084C
:10006000CB020008CB020008CB020008B91100083F
:10007000CB020008CB020008CB020008CB0200082C
:10008000CB020008CB02000841110008CB02000897
:10009000CB020008CB020008CB020008CB0200080C
:1000A000CB02000829940008CB020008CB0200080C
:1000B00039940008CB020008CB020008CB020008EC
:1000C000CB020008CB020008CB020008CB020008DC
:1000D000CB020008B9AC0008CB020008CB02000834
:1000E000CB020008CB02000800000000CB02000891
:1000F000CB020008CB020008CB020008CB020008AC
:10010000CB020008CB020008CB020008CB0200089B
:10011000CB02000899950008CB020008CB0200082A
:10012000CB020008CB020008CB020008CB0200087B
:10013000CB020008CB020008CB020008CB0200086B
:1001400000000000000000000000000000000000AF
:10015000CB020008CB020008CB020008CB0200084B
:10016000CB020008CB020008CB020008CB0200083B
:10017000CB020008CB020008CB020008CB0200082B
:10018000CB020008CB020008CB020008CB0200081B
:10019000CB020008CB020008CB020008CB0200080B
:1001A000CB020008CB020008CB020008CB020008FB
:1001B000CB020008CB020008CB020008CB020008EB
:1001C000CB020008CB020008CB020008CB020008DB
:1001D000CB020008CB020008CB020008CB020008CB
:1001E000CB020008CB020008CB020008CB020008BB
:1001F000CB020008CB020008CB020008CB020008AB
:10020000CB020008CB020008CB020008CB0200089A
:10021000CB020008CB020008CB020008CB0200088A
:10022000CB020008CB020008CB020008000000004F
:10023000CB020008CB02000800000000CB0200083F
:10024000CB020008CB020008CB020008CB0200085A
:10025000CB020008CB020008CB020008CB0200084A
:10026000CB020008CB020008CB020008CB0200083A
:10027000CB020008CB020008CB02000800000000FF
:10028000CB020008CB020008CB02000800000000EF
:1002900000000000CB020008DFF80CD000F06AFA82
:1002A0000048004729B1000898CE0024074880473D
:1002B0000748804707480047FEE7FEE7FEE7FEE7FE
:1002C000FEE7FEE7FEE7FEE7FEE7FEE711160008A1
:1002D00039930008990200082DE9F05F05460020D7
:1002E00092469B4688460646814640241BE02846A7
:1002F00041464746224600F05EF853465A46C01A29
:10030000914110D311461846224600F045F82D1AA7
:1003100067EB01084F4622460120002100F03CF81F
:1003200017EB00094E41201EA4F10104DFDC484612
:1003300031462A464346BDE8F09FD2B201E000F8BC
:10034000012B491EFBD270470022F6E710B5134679
:100350000A4604461946FFF7F0FF204610BD421C2E
:1003600010F8011B0029FBD1801A704730B50B46ED
:10037000014600202022012409E021FA02F59D42D5
:1003800005D303FA02F5491B04FA02F52844151EA9
:10039000A2F10102F1DC30BD202A04DB203A00FA90
:1003A00002F1002070479140C2F1200320FA03F3CC
:1003B000194390407047202A04DB203A21FA02F0CA
:1003C0000021704721FA02F3D040C2F1200291408F
:1003D0000843194670472DE9FE4F804681EA030025
:1003E000C00F0C46009021F0004123F00045B8EB0F
:1003F0000200A94105D24046214690461C460B46C4
:10040000024623F00040104347D0270DC7F30A00EF
:10041000C3F30A510290401A019040286BDAC3F3EB
:10042000130040F4801B0098924620B10023D2EBC9
:10043000030A63EB0B0B01985946C0F1400250468A
:10044000FFF7AAFF06460D4650465946019A00F0AE
:10045000A9F910EB08006141002487EA115284EAEF
:10046000E7731A4340D0009A62B3019A012A4FEA17
:10047000075215DC001B61EB02014FF0004202EA5B
:100480000752CDE90042001C41F5801132462B464F
:1004900000F0A9F903B0BDE8F08F40462146F9E726
:1004A000001B61EB0201001C41F5801300185B4149
:1004B0002018A2F5001747EB030140EAD570B619E2
:1004C0006D4111E06D084FEA360645EAC0754FEA06
:1004D0000752001B61EB0201001C41F58011490825
:1004E0004FEA30000019514132462B4603B0BDE8B7
:1004F000F04F00F069B90098012240000023D0EBD2
:10050000020263EBE073009821464FEAE074B8EB17
:10051000000061EB0401E9E783F000435BE781F051
:10052000004158E72DE9FE4F81EA030404F000443E
:1005300021F0004100944FF0000B23F0004350EAFB
:1005400001045ED052EA03045BD0C3F30A54C1F342
:100550000A552C44A4F2F3340194A0FB0254C1F3D5
:10056000130141F48011C3F3130343F4801301FB1F
:10057000024400FB034E840A970A44EA815447EA86
:100580008357A4FB076802958D0A05FB07854FEA90
:10059000932C04FB0C542705029D4FEA065847EAAA
:1005A0001637B5EB08056EEB070C870E920E47EA7F
:1005B000811742EA8312A7FB0201B6EB0B0164EB41
:1005C00000042B0D43EA0C335E1844EB1C50DA4652
:1005D0005146E7FB0201C5F313044FEA0B3343EA2C
:1005E00014534FEA0432019C43EA0603A4F10C04BD
:1005F0000294009CCDE900B400F0F5F803B0BDE82A
:10060000F08F00200146F9E72DE9F04D81EA03045F
:1006100004F0004B21F0004514464FF0000A23F08F
:10062000004150EA050220D054EA01021DD0C5F372
:100630000A570246C5F31303C1F31300C1F30A5668
:1006400040F4801543F48013A7EB0608101BD64630
:1006500008F2FD3873EB050002D308F1010801E050
:1006600092185B41B8F1000F03DA00200146BDE8A3
:10067000F08D00204FF48011064684460EE0171BD3
:1006800073EB050705D3121B63EB050306434CEA26
:10069000010C49084FEA300092185B4150EA01070B
:1006A000EDD152EA030012D082EA040083EA050188
:1006B000084305D0101BAB4106D20122002306E0FF
:1006C00000224FF0004302E06FF0010253101AEBDA
:1006D00006004CEB085110EB0A0041EB0B01BDE8A2
:1006E000F04D00F071B870B521F0004303430CD019
:1006F000C1F30A550024D5EB040564EB0403D617B7
:10070000AD1AB34102DB0020014670BD201841EB59
:10071000025170BDC1F30A52C1F3130140F2FF331D
:1007200041F480119A4202DA00200146704740F2FB
:1007300033439A42A2F2334202DC5242FFF73BBEFD
:10074000FFF72ABE30B5041E71F1000404DB4FF040
:100750000044404264EB0101141E73F1000405DB08
:100760001C464FF00043524263EB0403994208BF1A
:10077000904230BD1CB509480090094801900546DB
:10078000009C06E0E06840F0010394E80700984709
:100790001034AC42F6D3FFF783FD0000ACCE000866
:1007A000CCCE0008202A06DBCB17203A41FA02F013
:1007B00043EAE07306E041FA02F3D040C2F12002BE
:1007C000914008431946704710B5141E73F1000498
:1007D00008DA401C41F1000192185B411A4301D133
:1007E00020F0010010BD2DE9F04D92469B4611B15D
:1007F000B1FA81F202E0B0FA80F220329046FFF7BF
:10080000CBFD04460F4640EA0A0041EA0B0153467D
:100810005A46084313D0114653EA010019D0C8F1D3
:1008200040025046FFF7C7FD05460E465046594662
:100830004246FFF7B1FD084305D0012004E0204601
:100840003946BDE8F08D0020054346EAE0762C43AA
:1008500037430A986305E40AA0EB08000022FD0A6A
:1008600044EA47540A3002D500200146E9E7010571
:1008700010196941DDE9084500196941BDE8F04DED
:10088000A2E700000000000010B540F20044012182
:10089000C5F602040022204603F08EFE022100224B
:1008A000204603F089FE4FF4045000F039F842F27C
:1008B000380000F035F84FF4404000F031F84FF4C4
:1008C0000450BDE8104000F02BB80000000000000C
:1008D00010B500EE101A48F200029FED0F1BCFF684
:1008E000FF720028B8EE400B08BF4FF4804220EEA4
:1008F000010BBCEEC00B10EE101AC1F38D306FF37C
:100900009F318418114488B200F00AF8A0B2BDE803
:10091000104000F005B800BFF8BA40D813A20C4050
:10092000B0B540F600440546C5F602041021012288
:10093000204603F041FE08210022204603F03CFE41
:10094000EA0B2021204603F037FE1021002220462A
:1009500003F032FE10210122204603F02DFEC5F3E4
:1009600080322021204603F027FE1021002220465D
:1009700003F022FE10210122204603F01DFEC5F3E4
:1009800040322021204603F017FE1021002220468D
:1009900003F012FE10210122204603F00DFEC5F3E4
:1009A00000322021204603F007FE102100222046BD
:1009B00003F002FE10210122204603F0FDFDC5F3E5
:1009C000C0222021204603F0F7FD102100222046FE
:1009D00003F0F2FD10210122204603F0EDFDC5F3E6
:1009E00080222021204603F0E7FD1021002220462E
:1009F00003F0E2FD10210122204603F0DDFDC5F3E6
:100A000040222021204603F0D7FD1021002220465D
:100A100003F0D2FD10210122204603F0CDFDC5F3E5
:100A200000222021204603F0C7FD1021002220468D
:100A300003F0C2FD10210122204603F0BDFDE8B203
:100A40002021C209204603F0B7FD102100222046D4
:100A500003F0B2FD10210122204603F0ADFDC5F3E5
:100A600080122021204603F0A7FD102100222046FD
:100A700003F0A2FD10210122204603F09DFDC5F3E5
:100A800040122021204603F097FD1021002220462D
:100A900003F092FD10210122204603F08DFDC5F3E5
:100AA00000122021204603F087FD1021002220465D
:100AB00003F082FD10210122204603F07DFDC5F3E5
:100AC000C0022021204603F077FD1021002220469D
:100AD00003F072FD10210122204603F06DFDC5F3E5
:100AE00080022021204603F067FD102100222046CD
:100AF00003F062FD10210122204603F05DFDC5F3E5
:100B000040022021204603F057FD102100222046FC
:100B100003F052FD10210122204603F04DFD05F0A7
:100B200001022021204603F047FD1021002220462B
:100B300003F042FD10210122204603F03DFD20215B
:100B40000122204603F038FD082101222046BDE89D
:100B5000B04003F031BD0000B0B50446006842F279
:100B6000001140F48070C4F20201884218D142F2B0
:100B70000830C4F20200006810F4403F18D005F0BD
:100B8000EFF861680546B1F5803F05D0B1F5403F0B
:100B90002CD0B1F5003F2AD1080CB5FBF0F526E0CA
:100BA00046F20830C5F60200006810F4403FE6D176
:100BB0004FF40020002104F047F861680546A1F5D4
:100BC00080224FEAB2420A2A11D8DFE802F0070772
:100BD0000707070755535951570000BF6FF0010031
:100BE00000EA5140B5FBF0F501E000BFAD0803F0AD
:100BF000EBFC41F2030188420ED8206842F6015115
:100C0000C0F231118D4281682CBF41F4807121F412
:100C100080718160B0BD00BF4BF62140C0F2BE00C4
:100C2000854205D82068816821F440718160B0BD9B
:100C300047F64100C0F27D10854207D820680122A6
:100C4000816862F309218160B0BD00BF20684FF266
:100C50008101C0F2FA218D42816805D8022262F337
:100C600009218160B0BD00BF41F440718160B0BD19
:100C7000ED09BCE76D09BAE72D09B8E72D0AB6E71B
:100C8000AD09B4E70000000070B504460068826852
:100C9000836802F0040203F00803D2186CD0C26823
:100CA000920121D5627D012A1ED1227D012A1BD10C
:100CB0000168490613D44DF60441C0F20C01043911
:100CC00050D0026852065CBF02685FEA426206D4F6
:100CD000026852065CBF02685FEA4262EFD54021BB
:100CE0000160012106E000BF022903D1022108268C
:100CF00012E000BF826852070AD58268920707D4C3
:100D00004FF6C0738268C7F6FF731A4010328260D4
:100D100001294FF0040610D0826812070AD58268B4
:100D2000920707D44FF6C0738268C7F6FF731A4064
:100D300020328260032908BF0C2603F04DFC216895
:100D40008968314218D0054603E000BF8068304210
:100D500012D003F041FC401B06282068F6D38168BE
:100D60003142F3D0606D40F010006065A06D40F03E
:100D70000100A065012070BD002070BD00000000D2
:100D80000146806B426D12F0500F426D06D0D206C4
:100D900010D4C06CC26C0846104700BF42F400710A
:100DA000416501680A681207CA6805D4910709D02D
:100DB00000F09ABF00F0B8BF12F4406FF8D1C968D4
:100DC0008904F5D4416D21F480714165416DC904F8
:100DD000EED4416D41F00101416500F085BF000096
:100DE000806B416D41F040014165816D41F004012E
:100DF000816500F099BF0000806B00F085BF0000A6
:100E00007047000000000000704700000000000074
:100E10002DE9F04381B0044608984BF6B8350F9F92
:100E2000C4E903300B9821810A9984ED000AC4E9D2
:100E300006100C9820840D9860620E99A062E185DE
:100E400004F130004BF688316281DDE91098099A8F
:100E5000A2820022E28284F82C206619C4ED010AE5
:100E6000FFF772FA6751C6E9019801B0BDE8F08357
:100E70002DE9F047804690F82C004BF6B031B8F8D9
:100E80002E50022808EB010A42D0012808D0002881
:100E90004FF0000088F82C0000BFBDE8F08700BFCD
:100EA0004CF695606821C0F6000003220AF03CFD74
:100EB00038A008F091F94FF0000088F82C000DB32D
:100EC00047F62E5008F12C0408EB000748F2000802
:100ED000CFF6FF7854F8040F000118FA80F0CAF832
:100EE0000000DAF808008047DAF80400013D00F558
:100EF00000404FEAE07100EB11704FEA101027F844
:100F0000020FE7D1DAF80C00BDE8F047004700BF58
:100F10004CF695607521C0F6000003220AF004FD2E
:100F200019A008F059F94FF0000088F82C002DB3F3
:100F300047F6305008F1300408EB000748F200088B
:100F40004FEA4509CFF6FF782E4600BF54F825003A
:100F5000000118FA80F0CAF80000DAF808008047AB
:100F6000DAF80400013600F50040C11700EB1170FB
:100F7000000927F81500B5B2A945E7D8DAF810003E
:100F8000BDE8F047004700BF4952515F46554C4C01
:100F90000D0A00004952515F48414C460D0A0000BD
:100FA00000BF70470000000070B582B00446806941
:100FB000002140F2FF72002600F042FBE08D450068
:100FC00064200AF079F8ADB2A06904F130012A4634
:100FD00001F0C6F9218C47F63052E06922442B46D5
:100FE000009601F061FCE06802B0BDE8704005F0D9
:100FF000AFBB00000000000010B50446C06805F05B
:10100000FFFBA06901F034FA218CE069BDE81040D3
:1010100001F0C2BC00000000B0B5016804468A6857
:101020008868C0074FF0000031D012F0020218BFEC
:10103000B0BD886800F00D0001281FD14FF6C072C6
:101040008868C7F6FF72104002308860032008608D
:1010500003F0C2FA21688968C90701D10020B0BD38
:10106000054602E08068C007F8D003F0B5FA401BDF
:1010700003282068F6D38168C907F3D0606D40F07B
:1010800010006065A06D40F00100A0650120B0BDBA
:10109000F0B581B0044600688168C9074AD14FF6AF
:1010A000C0778168C7F6FF7707F17F0211420BD046
:1010B000606D40F010006065A06D40F00100A0651B
:1010C000012001B0F0BD00BF8168394041F001014D
:1010D000816003F081FA42F2000246F20836C4F25F
:1010E0000202216802F5807302F54275C5F6020618
:1010F000994208BF2E46914208BF2E4699420546A6
:10110000306814D110F01F0014D110E08868C007B7
:1011100004D18868384040F00100886003F05CFA30
:10112000401B2168032802D30868C007C0D00868A4
:10113000C007EBD0002001B0F0BD000000000000AF
:1011400040F61840C2F2004000F0F2BD000000007E
:10115000FEE700000000000010B5846B204601F09F
:10116000F3FA0120207110BD10B5846B204601F008
:1011700023FA0120207110BD10B5846B206940F066
:1011800004002061204601F0E7FA0120207110BD23
:1011900010B5846B206940F004002061204601F006
:1011A00013FA0120207110BD806B01F0D1BA00004C
:1011B000806B01F005BA00004CF65400C2F200400A
:1011C00002F00AB80000000040F20F42D0F800C060
:1011D000C4F20202944511DC6F22C4F2020294456B
:1011E00022DC3F22C4F20202944539DC1022C4F210
:1011F000020294455AD0282254E000BF40F26F42C8
:10120000C4F2020294451BDC40F23F42C4F20202E7
:1012100094452DDC40F21042C4F20202944545D0C0
:1012200040F228423EE000BF9F22C4F202029445F1
:1012300028DC7022C4F20202944537D0882231E0C3
:1012400040F29F42C4F20202944523DC40F2704215
:10125000C4F20202944529D040F2884222E000BF45
:101260004022C4F20202944520D058221AE000BF66
:1012700040F24042C4F20202944517D040F2584274
:1012800010E000BFA022C4F2020294450ED0B822A2
:1012900008E000BF40F2B842C4F20202944505D013
:1012A00040F2A042C4F20202944517D10CF0F802B9
:1012B0004AF6AB23103ACAF6AA23A2FB03310AA3CB
:1012C0005F2AC1F302115B5C40F2FF312CEA01019D
:1012D000C36588BF04318165084670472CF0FF0163
:1012E00081650846704700BF0006101600061016FC
:1012F00070B540F26F44D0F800C0C4F20204D0F8D8
:1013000058E0A4451ADC9F25C4F20205AC4533DC45
:101310005725C4F20205AC455ADC1025C4F202057B
:10132000AC4500F098802825C4F20205AC4500F0D9
:1013300092804025C4F202058AE000BF45F22F45A5
:10134000C5F60205AC452DDC40F2B745C4F20205F6
:10135000AC454BDC40F27045C4F20205AC457AD096
:1013600040F28845C4F20205AC4574D040F2A04575
:10137000C4F202056CE000BF40F22745C4F202054A
:10138000AC4543DCA025C4F20205AC4563D0B825CA
:10139000C4F20205AC455ED040F21045C4F202052D
:1013A00056E000BF45F26B45C5F60205AC453FDC93
:1013B00045F23045C5F60205AC454CD045F24445F2
:1013C000C5F60205AC4546D045F258453EE000BFA3
:1013D0005825C4F20205AC453DD07025C4F2020583
:1013E000AC4538D08825C4F2020531E040F2B8455A
:1013F000C4F20205AC452ED045F20845C5F60205FB
:10140000AC4528D045F21C4520E000BF40F22845FD
:10141000C4F20205AC451ED040F24045C4F20205BC
:10142000AC4518D040F25845C4F2020510E000BFA8
:1014300045F26C45C5F60205AC450CD045F2944525
:10144000C5F60205AC4506D045F28045C5F6020555
:10145000AC4540F0D080456EC66E002E866E6E6044
:101460001CBFD0E91C566E60A44515DC9F24C4F255
:101470000204A4452CDC5724C4F20204A44551DC28
:101480001024C4F20204A4457AD02824C4F2020431
:10149000A44575D040246FE045F22F44C5F6020400
:1014A000A44529DC40F2B744C4F20204A44545DC5B
:1014B00040F27044C4F20204A44561D040F2884472
:1014C000C4F20204A4455BD040F2A04454E000BF43
:1014D00040F22744C4F20204A4453FDCA024C4F235
:1014E0000204A4454CD0B824C4F20204A44547D059
:1014F00040F2104440E000BF45F26B44C5F60204E0
:10150000A44555DC45F23044C5F60204A44561D03B
:1015100045F24444C5F60204A4455BD045F2584464
:1015200054E000BF5824C4F20204A44528D070241B
:10153000C4F20204A44523D088241DE040F2B8443C
:10154000C4F20204A4451BD045F20844C5F60204C7
:10155000A4453FD045F21C4438E000BF40F2284487
:10156000C4F20204A4450BD040F24044C4F2020489
:10157000A44505D040F25844C4F20204A4453AD12F
:101580008468C06D00F01F003F2505FA00F0CEF81A
:101590000800DCF80000402C20F48020CCF800008B
:1015A000CCF8043023D1CCF80820CCF80C1070BD56
:1015B00045F26C44C5F60204A4450BD045F28044C4
:1015C000C5F60204A44505D045F29444C5F60204CC
:1015D000A44510D1C46D012504F01F04806805FAEC
:1015E00004F4CEF804404028CCF80430DBD0CCF82A
:1015F0000810CCF80C2070BD7047000000000000FF
:10160000EFF3108072B600BFFEE70000000000009C
:1016100044F60400C5F60200816841F002018160D1
:101620000168890409D4016889045CBF01685FEA24
:10163000814102D401688904F2D57047000000009E
:1016400070B582B000230193044690F85000012841
:1016500002D1022002B070BD012084F85000204663
:101660000E461546FFF7D8FC616D18B141F0100128
:101670004CE000BF41F202124FF6C0739143C3F633
:10168000FE7302316165216806F4803605F08045FD
:101690008A682E4413404FF2FF72C2F2C3523344A1
:1016A00003F100438B608B68B3F1FF3F2ADC019BA1
:1016B00001330193019B93421DD88B68B3F1FF3F27
:1016C00020DC019B01330193019B934213D88B686B
:1016D000B3F1FF3F16DC019B01330193019B934261
:1016E00009D88B68B3F1FF3F0CDC019B01330193F8
:1016F000019B9342D7D9606D40F0100020F00201A9
:10170000012003E0616D012262F3010161650021A6
:1017100084F8501002B070BD704700000000000057
:10172000704700000000000070470000000000004B
:10173000704700000000000070470000000000003B
:1017400090F85020012A01D10220704710B582B0D4
:1017500042F2083400230193C4F202040093A4F57A
:1017600042720368934227D14FF6006ECFF6FF7E98
:1017700054F80E209B681A4352071DD4D1F800C0BC
:101780002268BCF1000F22F4404323D04A681A4378
:1017900022604FF60052CFF6FF72A25854F80E3076
:1017A0001A43D20726D1226840F61F739A438968EC
:1017B000114341EA0C011CE0416D41F020014165FB
:1017C0000121002280F8502002B0BDE810400846F8
:1017D000704700BF4FF600512360CFF6FF7161588C
:1017E00054F80E201143C90704D1216840F61F7236
:1017F000914321600021E4E7F0B581B0002200921E
:1018000090F85020012A03D10221084601B0F0BD12
:101810000768012380F85030BB685B0700F19681B0
:101820000C684FF6FF7CB4F1FF3FC0F20F0C4FEA9B
:1018300094630FDD94FAA4F214EA0C0FB2FA82F268
:1018400008BFA20E012402F01F0204FA02F2FC6992
:101850002243FA614A681F2603F01F03C2F30124E2
:1018600002F01F02964007EB840403FA02F2256B94
:1018700025EA060632432263BA68BB6802F0040216
:1018800003F00803D21840F096800A6807258E6896
:10189000C2F34063C2F3045207EB830395405C69D3
:1018A00006FA02F224EA05052A435A6141F20002CF
:1018B000C5F60042126802F07042B2F1805F33D187
:1018C0004A69FB680E2606EA530302FA03F30C6921
:1018D000042C39D007F160020E6806F0F84652F881
:1018E0002450334305F000452B4342F824300B6964
:1018F0004E7E52F82350012E25F0004508BF05F119
:10190000004542F823500A7E0B693E69013A03F014
:101910001F03B2FA82F226F4F0465209D2029A402C
:1019200032433A6147E000BFFA684B69FE68D2066D
:101930004FEA560402D404F00E0201E004F008025B
:1019400093400C69042CC5D13A6E0B6802F0F84242
:101950009B069A4218D13A6E22F000423A667A6E9D
:1019600002F0F8429A4214D0BA6E02F0F8429A425B
:1019700018D1BA6E22F00042BA66FA6E02F0F8424E
:101980009A4214D017E000BF7A6E02F0F8429A42F1
:10199000EAD17A6E22F000427A66BA6E02F0F8421C
:1019A0009A42E6D0FA6E02F0F8429A4203D1FA6EF9
:1019B00022F00042FA66BA68D20779D1D1F800E085
:1019C0000023C968D7F8C0200EEA0C04C4F2527391
:1019D000A24301F018042CFA04F603F52D0506EADB
:1019E0000E06A94246EA0201C7F8C0105DD142F2D4
:1019F0000011C4F202018F4226D042F20001C4F26B
:101A000002018F423CD11F21C1F2F0418E4540F3CB
:101A1000C38040F2FF71C2F630618E4540F3A98069
:101A200040F60001C2F630618E4500F0478141F278
:101A30000001C3F260218E4500F036810021C4F21E
:101A400021318E451DD045E11F21C1F2F0418E4567
:101A500000F388800721C0F690418E4500F3AA80EC
:101A60000221C0F230418E4500F0A1800421C0F671
:101A700060018E4540F02E814023C1F6201300E026
:101A8000002393FAA3F143F6C132B1FA81F1C0F217
:101A90000A0213424FF0010208BF990E01F01F0124
:101AA00002FA01F1FA691143F961BEF1FF3F01DD6C
:101AB000002150E042F2000146F2083CC4F202016B
:101AC000C5F6020C01F5807201F542739742624639
:101AD00008BF1A468F4242F2001408BF1A4647F464
:101AE0008073C4F20204A342136827D18A68D1F834
:101AF00008111143C90729D1002103F0E074CCF685
:101B000084318E4508BF13F4000163D00021CCF26C
:101B100052718E4540F0A0800021B1EB146F40F06F
:101B20009B80ACF542718F42C2D1DCF8001021F0ED
:101B3000E071214341F08071A5E000BF4FF60051F4
:101B4000CFF6FF715CF80110C907D5D0416D41F0A7
:101B5000200141650121002280F85020084601B093
:101B6000F0BD00BF40F2FF71C2F630618E4500F358
:101B70008F802021C1F2F0418E4500F0A58040F217
:101B80000041C2F600218E4540F0A48040F60003DB
:101B9000C2F6306375E700BF0721C0F690418E455D
:101BA00008DC0221C0F230418E457FF45FAF012393
:101BB00067E700BF0821C0F690418E457AD010211A
:101BC000C1F2C0018E4540F0858040F20013C2F2A0
:101BD000801356E7ACF542718F427FF469AFDCF8B1
:101BE000001042F6635221F0E071C0F23E522143F0
:101BF00041F40001CCF8001040F20C01C2F20041A7
:101C000009688909A1FB02129109022202EB410134
:101C10000091009900293FF44BAF009901390091E0
:101C2000009900293FF444AF0099013900910099CF
:101C300000293FF43DAF0099013900910099002936
:101C40003FF436AF009901390091009900294FF017
:101C50000001E2D17FE700BFACF542718F424FF047
:101C600000017FF478AF0022CCF6B872964508BF29
:101C700013F480027FF46FAFDCF8001021F0E07104
:101C8000214341F48001CCF80010002163E700BF3C
:101C900040F60001C2F630618E450FD041F20001DE
:101CA000C3F260218E4515D142F20003C3F2906366
:101CB000E7E600BF8023C1F65053E2E641F200039D
:101CC000C3F26023DDE600BF40F20023C2F2B0534E
:101CD000D7E600BF00210023C4F684318E4504BF3F
:101CE0000023C4F6B873CCE640F67C410068C2F22B
:101CF00000418A691268904218BF7047022081F83B
:101D00002C0070470000000040F67C410068C2F2E1
:101D100000418A691268904218BF7047012081F81B
:101D20002C00704700000000704700000000000019
:101D30002DE9F04F81B0044642F2000046F208312E
:101D4000C4F20200C5F60201276800F5807A00F5AA
:101D50004279574508BF4946874208BF49463E6811
:101D60007D68B207D1F800800FD515F002010CD0C4
:101D7000606DC00603D4606D40F40060606520466D
:101D8000FFF7CAFC276802213960710708F01F0BB2
:101D900002D515F0040104D1310755D515F008011D
:101DA00052D0214651F8542FD20603D40A6842F487
:101DB00000720A60FA6812F4406F3FD1BBFA8BF2EE
:101DC000ABF10503B3FA83F352095B09384642EAE3
:101DD000030CABF10903B3FA83F342F20002C4F23D
:101DE0000202574508BF10465B0943EA0C02D207BE
:101DF000024618BF3A46B84208BF0246D26892046B
:101E00001CD43A68120719D5BA6852070CD47A68FC
:101E100022F00C027A60086820F48070086008687C
:101E2000C00407D50AE000BF606D04F1580140F01E
:101E300010006065086840F0010008602046FFF768
:101E400053FF27680C213960B10602D515F0200137
:101E500004D171062CD515F0400129D0214651F846
:101E6000542FD20603D40A6842F400520A6042F2A8
:101E700000023846C4F20202574508BF104608F077
:101E80001E030246062B08BF3A46BBF1000F08BFEF
:101E90003A46B84208BF0246F86C10F4C07FFB68AF
:101EA000D26879D02046FFF73BFC27686020386075
:101EB00030060CD515F0800009D0606D40F48030FC
:101EC0006065204600F0C8F9276880203860F0057A
:101ED0000DD515F480700AD0606D40F40030606557
:101EE0002046FFF725FC27684FF480703860B00566
:101EF0000DD515F400700AD0606D40F48020606547
:101F00002046FFF719FC27684FF400703860F00690
:101F100027D515F0100024D0206BA0B1BBF1000F25
:101F20005CD046F2083042F20001C5F60200574587
:101F300008BF4846C4F202018F4208BF4846006805
:101F400010F4404F0BD0606D40F480606065A06D70
:101F500040F00200A0652046FFF7E6FE276810204B
:101F60003860700514D515F4806011D0606D40F4B0
:101F700080406065A06D40F00800A0654FF480606F
:101F80003860204601B0BDE8F04FFFF7CDBB00BF81
:101F900001B0BDE8F08F00BF900106D503F44060AA
:101FA00002F40053C0187FF47DAF386840067FF517
:101FB00079AF12F400107FF475AFB868000711D440
:101FC000786820F060007860086820F4805008602D
:101FD0000868C0053FF566AF0AE000BFF8688007F3
:101FE000B1D1BCE7606D04F1580140F010006065AC
:101FF000086840F00100086054E70000000000009D
:1020000070B582B0044600284FF0000001902DD03A
:10201000606D30B9204600F023F90020A06584F8F7
:1020200050002068816889004FF6C071C5F6FF71C5
:1020300002D582680A4082608268D20031D4826808
:1020400001F18051114042F6635241F080518160AC
:1020500040F20C01C0F23E52C2F200410968890907
:10206000A1FB0212012101EB921105E0012630468D
:1020700002B070BD019901390191019989B10199AD
:1020800001390191019961B10199013901910199D8
:1020900000291FBF019901390191019918BF002939
:1020A000E8D18168C90009D4616D012641F01001B1
:1020B0006165A16D41F00101A16500E00026816824
:1020C000626D02F0100201F004018918616D40F0A8
:1020D000918021F48171023161658168C90728D13D
:1020E00042F2001240F48071C4F20202914242F2C4
:1020F0000001C4F2020140F0A5808A68D1F80831DD
:102100001A43D20715D101F5807201F5427346F2E8
:10211000080C9042C5F6020C1A4618BF0CF5407226
:10212000884208BF1A466068116821F47C11084390
:10213000106002F049FA41F2030100228842A068CF
:10214000A0F1100188BF0122B1FA81F1237F490972
:102150001140226B617D154616BF4D034A031C20BA
:10216000012B45EA034141EA020141EA000106D19F
:10217000206A0022CFF6FE7202EB40400143606A03
:1021800020B100F47870A26A1043014320684CF239
:102190000303CFF6F073C2681A401143C16081682F
:1021A000826801F0040102F00802891836D1217D0D
:1021B00044F20305E26AC36842EA813123EA050278
:1021C0001143C16094F83810012901691AD14FF602
:1021D0001E020125CFF60042CFF6FF751140D4E96B
:1021E0000F231943636C05EB02421143A26C1943A0
:1021F000114309E041F0100001266065304602B04D
:1022000070BD00BF21F0010101610169626B21F025
:102210007041114301612046FEF79EFC2068E16891
:102220000129026B22F00F0102D1A269013A114388
:1022300001630121606D61F301006065304602B009
:1022400070BD00BF46F20802C5F602021268D2074E
:102250003FF459AF6DE70000704700000000000038
:1022600070B5B8B0044602A80830B82100263396ED
:10227000CDE93666CDE93466FEF766F842F2000134
:102280002068C4F20201884202D038B070BD00BF9D
:102290004FF40020029019200C90C8200D900A20C5
:1022A0000396CDE90F004FF480302B9002A8022551
:1022B0000E95129602F0A0FE08B1FFF7A1F944F2C4
:1022C000D8400026C5F60200016841F020010160F7
:1022D000016801F0200101910199816841F0040138
:1022E0008160806833A900F0040001900198032008
:1022F000349040F60000C5F602003395359602F0A2
:102300007FF84CF654051020C2F20045C4F20200DA
:102310004FF4006128600920C5E901064FF4806090
:1023200028614FF4005069614FF48071EE60C5E997
:1023300006014FF44030C5E90806284601F058FB75
:1023400008B1FFF75DF9122002210122E564AC63B8
:1023500002F03EFA122002F027FA38B070BD0000F9
:102360002DE9F04142F2001646F20834C4F20206AA
:10237000076806F50275C5F60204A6F58073B74234
:1023800008BF2C469F4208BF2C462368BF687F07C2
:1023900003D490F85070012F02D10220BDE8F081E3
:1023A00003F01F070123092F80F850305AD8BB4093
:1023B00040F221252B4255D00D4690460446FEF7AB
:1023C00067FE28B1002084F850000120BDE8F081AC
:1023D0002168606D40F601732246984300F58070D5
:1023E00060650FB1B14203D0506D20F4801050658C
:1023F000506D40F68157C0044FF0000044BF906D0F
:1024000020F0060040F6F956C0F600079065C0F6C9
:102410000006D06C00231446C0E90F7640F6E15761
:10242000D66AC0F60007C7641C270F6082F85030D8
:102430002A464B6843F010034B60CB6823F003033C
:102440003343CB604031434601F002FE21684FF632
:10245000C073C7F6FF738A681A4004328A60BDE809
:10246000F08100BF002180F850100120BDE8F0810C
:1024700070B5044690F85000012801D1022070BDCB
:1024800003212046012584F85050FEF7FDFB28B1BA
:10249000002084F85000284670BD00BF2168E06C21
:1024A000CA6822F00302CA6090F83520022A3AD1A5
:1024B00000F0A2FAB0B305462068616D41F040011A
:1024C0006165416821F01001416081688268D2072E
:1024D000DED011F00201DBD1816801F00D0101298C
:1024E0001ED14FF6C0728168C7F6FF7211400231EB
:1024F00081600321016002F06FF821688968C907D3
:10250000C6D0064603E000BF8068C007C0D002F016
:1025100063F8801B03282068F6D38168C907F3D0CD
:10252000606D39E02168486820F0100048608868D4
:102530008A68D20717D010F0020014D1886800F022
:102540000D00012826D14FF6C0728868C7F6FF72C9
:102550001040023088600320086002F03DF82168D6
:102560008968C90708D1204641F20112002550F8B8
:10257000541F914316E000BF054602E08068C00783
:10258000F1D002F029F8401B03282068F6D38168B7
:10259000C907F3D0606D012540F01000606520464A
:1025A00050F8581F41F001010160002084F85000EC
:1025B000284670BD000000007047000000000000C9
:1025C000704700000000000070470000000000009D
:1025D0002DE9F041044600284FF0010018BF002902
:1025E00002D1BDE8F08100BF607901284FF0020000
:1025F00008BFBDE8F0810B680127042B67712071CB
:102600001ED10F46154601F0E7FF2368A846002DAE
:102610000546586B24D0B0F1FF3F06DD3946B86956
:1026200058643AE0586B0028F8D501F0D5FF401BFC
:1026300023680228F6D3586BB0F1FF3FF2DC21E0AB
:1026400023680869012843D102F010021F27986B04
:1026500097404E69B84306FA02F73843986339E069
:1026600048F20006C2F2000601E000BF586B30429B
:1026700010D001F0B1FF401B23680228F6D3586B3D
:102680003042F3D0206940F008002061032020711F
:10269000BDE8F0813946B869186408F0100040F2CE
:1026A000FF379E6C8740D1E9075C26EA070705FAE9
:1026B00000F637439F64FF27DE6C8740424626EAD8
:1026C00007070CFA00F03843D86408690128BBD02A
:1026D00002F010020727D86BCE689740012E20EA3F
:1026E000070C4FF0000003D0022E03D1012605E0B5
:1026F000002603E08E68B6FA86F676090D688F68C4
:102700002E4337434968974047EA0C07DF634FF48D
:1027100080471E68974026EA07071F6040F6FE774D
:102720001E68974026EA0707914039431960C02187
:1027300091401A6822EA010119600121217160713A
:10274000BDE8F081000000007047000000000000BC
:10275000704700000000000070470000000000000B
:10276000007970470000000090B1017941B910B5BF
:1027700000214171044600F00FF82046BDE81040EA
:102780000221017100210161012202710846704796
:10279000012070470000000080B586B047F200427B
:1027A0000068C4F20002002190420591CDE90311B6
:1027B0000291019102D006B080BD00BF44F2E0401A
:1027C000C5F60200826842F000528260826802F020
:1027D00000520092009A026842F001020260006812
:1027E00000F0010000900098302001900320CDE916
:1027F0000201002001A9C5F6020001F001FE06B0A9
:1028000080BD00000000000081B04FF0000CCDF84A
:1028100000C088B14FF0140C002908BF4FF0080C1D
:1028200000680090009802EB0C01084400900098AA
:102830000360002001B07047012001B07047000024
:10284000E0B14279012A4FF0020229D080B502712D
:1028500001F0100E0268012303FA0EFC0029136830
:1028600043EA0C03136011680AD04FF0020C01F424
:1028700078110CFA0EF3994208D00BE00120704752
:1028800001F03E01022905D14FF0010C516841EAE7
:102890000C0151600022012101714271BDE88040AC
:1028A0001046704700000000B0B38446407901280C
:1028B0004FF0020008BF7047F0B581B0069C0F468C
:1028C0004FF001068CF805608CF8040031B3DCF899
:1028D0000C0041F2691141F2B116C0F60001C0F6D8
:1028E0000006042CC0E90F1641F29116DCF8001026
:1028F000C0F60006C6644FF01C06654608BF1826E1
:10290000002C0C6808BF142644F080540C6001EBC6
:10291000060C4FF0005424E001207047DCF808005A
:1029200041F2591141F2A91541F27916C0F60001A0
:10293000C0F60005C0E90F15C0F60006DCF800106F
:10294000C6641026042C654608BF0C26002C0C68B3
:1029500008BF082644F480540C6001EB060C4FF4C9
:1029600000540E6826430E601146624601F070FB6B
:102970004FF00001697118B105F11001042204E063
:1029800007F0100101228A4029680B681A430A6087
:1029900001B0BDE8F040704770B54FF0010E38B39C
:1029A000036801F0100C4FF48052002902FA0CF277
:1029B0001C6824EA02021A604FF00C04196808BF70
:1029C00008240EFA0CF26FF0005521EA020119609A
:1029D00008BF6FF40055015906460846012400F06F
:1029E0000BF830684FF0000E016829400160347127
:1029F000704670BD000000002DE9F041044601F072
:102A0000EBFD1CB3054694F83500022822D140F2B4
:102A10000F472668C4F2020740F26F48BE426FF0CB
:102A20000E00C4F202081DDC6F21C4F202018E42C6
:102A30002ADC3F21C4F202018E4241DC1021C4F2A3
:102A400002018E4263D028215CE000BF0120BDE876
:102A5000F08100BF802060650120002184F83410DF
:102A6000BDE8F08146451BDC40F23F41C4F2020163
:102A70008E422DDC40F21041C4F202018E4246D05B
:102A800040F228413EE000BF9F21C4F202018E4285
:102A900028DC7021C4F202018E4238D0882131E056
:102AA00040F29F41C4F202018E4223DC40F27041A9
:102AB000C4F202018E422AD040F2884122E000BFD7
:102AC0004021C4F202018E4221D058211AE000BFF9
:102AD00040F24041C4F202018E4218D040F2584107
:102AE00010E000BFA021C4F202018E420FD0B82135
:102AF00008E000BF40F2B841C4F202018E4206D0A5
:102B000040F2A041C4F202018E42314607D1314663
:102B1000306820F01E0041F8140B6FF080000A6846
:102B2000464500EA020008601ADC9F20C4F2020059
:102B3000864233DC5720C4F2020086425ADC102061
:102B4000C4F20200864200F097802820C4F20200FE
:102B5000864200F091804020C4F202008AE000BF6B
:102B600045F22F40C5F6020086422DDC40F2B74008
:102B7000C4F2020086424BDC40F27040C4F2020014
:102B8000864279D040F28840C4F20200864273D077
:102B900040F2A040C4F202006CE000BF40F22740C7
:102BA000C4F20200864243DCA020C4F20200864246
:102BB00062D0B820C4F2020086425DD040F21040DC
:102BC000C4F2020056E000BF45F26B40C5F60200B9
:102BD00086423FDC45F23040C5F6020086424BD0CB
:102BE00045F24440C5F60200864245D045F25840C1
:102BF0003EE000BF5820C4F2020086423CD0702064
:102C0000C4F20200864237D08820C4F2020031E0CC
:102C100040F2B840C4F2020086422DD045F208408E
:102C2000C5F60200864227D045F21C4020E000BFD6
:102C300040F22840C4F2020086421DD040F24040DB
:102C4000C4F20200864217D040F25840C4F202009B
:102C500010E000BF45F26C40C5F6020086420BD082
:102C600045F29440C5F60200864205D045F2804008
:102C7000C5F60200864204D1206E016821F48071FD
:102C80000160306820F00100306000BF3068C0078C
:102C900010D001F0A1FC401B0628F7D3202060656E
:102CA000032084F835000120002184F83410BDE8A9
:102CB000F08100BF20680821B8424FF03F0211DCCC
:102CC0006F23C4F2020398421EDC3F23C4F20203C6
:102CD000984235DC1023C4F20203984257D02823CF
:102CE00050E000BF40451BDC40F23F43C4F202030A
:102CF00098422DDC40F21043C4F20203984246D0C1
:102D000040F228433EE000BF9F23C4F202039842F2
:102D100028DC7023C4F20203984238D0882331E0C3
:102D200040F29F43C4F20203984223DC40F2704316
:102D3000C4F2020398422AD040F2884322E000BF46
:102D40004023C4F20203984221D058231AE000BF66
:102D500040F24043C4F20203984218D040F2584374
:102D600010E000BFA023C4F2020398420FD0B823A2
:102D700008E000BF40F2A043C4F20203984206D02C
:102D800040F2B843C4F20203984240F0C580D4E94F
:102D9000163707F01F07404502FA07F25A5019DCB0
:102DA0009F21C4F20201884232DC5721C4F20201A1
:102DB000884259DC1021C4F20201884200F096805A
:102DC0002821C4F20201884200F090804021C4F220
:102DD000020189E045F22F41C5F6020188422DDC4F
:102DE00040F2B741C4F2020188424BDC40F270412C
:102DF000C4F20201884279D040F28841C4F2020153
:102E0000884273D040F2A041C4F202016CE000BFDE
:102E100040F22741C4F20201884243DCA021C4F2FF
:102E20000201884262D0B821C4F2020188425DD01A
:102E300040F21041C4F2020156E000BF45F26B417E
:102E4000C5F6020188423FDC45F23041C5F6020179
:102E500088424BD045F24441C5F60201884245D034
:102E600045F258413EE000BF5821C4F202018842B9
:102E70003CD07021C4F20201884237D08821C4F2CC
:102E8000020131E040F2B841C4F2020188422DD083
:102E900045F20841C5F60201884227D045F21C419F
:102EA00020E000BF40F22841C4F2020188421DD058
:102EB00040F24041C4F20201884217D040F258412A
:102EC000C4F2020110E000BF45F26C41C5F60201F8
:102ED00088420BD045F29441C5F60201884205D0E4
:102EE00045F28041C5F6020188420BD1616EA26EA7
:102EF000E06E4A6030B1016821F480710160D4E96C
:102F00001C014160012084F835000020002184F874
:102F10003410BDE8F08100BF0421012237E7000032
:102F2000F0B190F83510022918D180B540F20F4267
:102F30000168C4F20202914214DC6F23C4F202035E
:102F4000994225DC3F23C4F2020399423CDC102362
:102F5000C4F2020399425DD0282357E080214165E5
:102F60000120704740F26F43C4F2020399421BDC18
:102F700040F23F43C4F2020399422DDC40F2104379
:102F8000C4F20203994245D040F228433EE000BF1C
:102F90009F23C4F20203994228DC7023C4F2020387
:102FA000994237D0882331E040F29F43C4F20203B4
:102FB000994223DC40F27043C4F20203994229D0C3
:102FC00040F2884322E000BF4023C4F2020399424A
:102FD00020D058231AE000BF40F24043C4F202035D
:102FE000994217D040F2584310E000BFA023C4F22A
:102FF000020399420ED0B82308E000BF40F2B84364
:10300000C4F20203994205D040F2A043C4F2020385
:10301000994275D191424FF0040280F8352011DCBD
:103020006F20C4F20200814222DC3F20C4F2020081
:10303000814239DC1020C4F20200814259D028209C
:1030400054E000BF40F26F40C4F2020081421BDC3A
:1030500040F23F40C4F2020081422DDC40F21040B9
:10306000C4F20200814244D040F228403EE000BF5A
:103070009F20C4F20200814228DC7020C4F20200CA
:10308000814236D0882031E040F29F40C4F20200F5
:10309000814223DC40F27040C4F20200814228D019
:1030A00040F2884022E000BF4020C4F2020081428A
:1030B0001FD058201AE000BF40F24040C4F2020086
:1030C000814216D040F2584010E000BFA020C4F268
:1030D000020081420DD0B82008E000BF40F2B840A5
:1030E000C4F20200814204D040F2A040C4F20200C7
:1030F0008142086820F001000860002080BD00BF08
:103100000A6822F00E020A6045F25742C5F6020232
:1031100091420A6822F001020A600FDC45F22F4258
:10312000C5F60202914219DC45F20842C5F60202D8
:10313000914229D045F21C4222E000BF45F27F4275
:10314000C5F60202914213DC45F25842C5F602026E
:10315000914219D045F26C4212E000BF45F2304274
:10316000C5F6020291420FD045F2444208E000BF8A
:1031700045F29442C5F60202914205D045F28042E2
:10318000C5F6020291421AD1D0E9181CD0E916E323
:103190000A6822F480720A6003F01F01012202FA19
:1031A00001F1CEF80410816ECCF80410C16E31B17B
:1031B0000A6822F480720A60D0E91C124A60012178
:1031C00080F83510016D0022002980F8342094D059
:1031D0008847002080BD00002DE9F04782B0002123
:1031E000019140F20C0148F2B513C2F20041C1F660
:1031F0004E33856D40F26F490A680168C4F20209D6
:103200002E68A2FB032849452A6815DC9F22C4F2D8
:10321000020291422CDC5722C4F20202914251DC9C
:103220001022C4F2020291427BD02822C4F2020290
:10323000914276D040226FE045F22F43C5F602035B
:10324000994229DC40F2B743C4F20203994245DCBB
:1032500040F27042C4F20202914262D040F28842CF
:10326000C4F2020291425CD040F2A04254E000BF9E
:1032700040F22742C4F2020291423FDCA022C4F293
:10328000020291424DD0B822C4F20202914248D0CB
:1032900040F2104240E000BF45F26B43C5F6020326
:1032A000994275DC45F23043C5F60203994200F0BD
:1032B000828045F24443C5F6020399427BD045F231
:1032C000584373E05822C4F20202914229D070227E
:1032D000C4F20202914224D088221DE040F2B84399
:1032E000C4F2020399421CD045F20843C5F602031A
:1032F000994260D045F21C4358E000BF40F228429A
:10330000C4F2020291420CD040F24042C4F20202E6
:10331000914206D040F25842C4F20202914240F07B
:103320005383C26D082302F01F0240F20F4A9340FC
:10333000C4F2020A334200F0DE8051454FF004042B
:1033400012DC6F27C4F20207B9426DDC3F27C4F2DA
:103350000207B94200F39C801027C4F20207B94269
:1033600000F0BD802827B5E0494569DC40F23F47C1
:10337000C4F20207B94200F3938040F21047C4F24E
:103380000207B94200F0AB8040F22847A2E000BF3C
:1033900045F26C43C5F6020399420CD045F28043D6
:1033A000C5F60203994206D045F29443C5F60203DE
:1033B000994240F009830B68C76D07F01F07042688
:1033C000BE40164218BF13F0040423D10226BE40AB
:1033D000164218BF13F0020442D1FA40120740F11E
:1033E000F38213F0080200F0EF820A6822F00E0266
:1033F0000A60012101FA07F26A60416580F8351020
:10340000C16C00294FF0000280F8342040F0D882CF
:10341000DAE200BF1A046E6034D49A0636D40A6821
:1034200022F004020A6031E09F27C4F20207B94289
:1034300040DC7027C4F20207B94250D0882749E027
:1034400040F29F47C4F20207B9423BDC40F27047AA
:10345000C4F20207B94242D040F288473AE000BFC6
:103460001A046E6000F1B4829A0600F1B5820A680F
:1034700022F00A020A60012180F83510002180F84C
:103480003410A9E2D90301D4816C98E2016C96E270
:103490004027C4F20207B94221D058271AE000BFE2
:1034A00040F24047C4F20207B94218D040F25847F0
:1034B00010E000BFA027C4F20207B9420FD0B8271E
:1034C00008E000BF40F2A047C4F20207B94206D0AC
:1034D00040F2B847C4F20207B94218BF08240F6887
:1034E000274208D00F6827F004070F60AB60436DD8
:1034F00043F0010343650123934033426FD05145AC
:1035000010DC6F27C4F20207B9421DDC3F27C4F26A
:103510000207B94234DC1027C4F20207B94256D080
:1035200028274FE049451BDC40F23F47C4F2020721
:10353000B9422DDC40F21047C4F20207B94246D02E
:1035400040F228473EE000BF9F27C4F20207B9427D
:1035500028DC7027C4F20207B94238D0882731E04E
:1035600040F29F47C4F20207B94223DC40F27047A1
:10357000C4F20207B9422AD040F2884722E000BFD5
:103580004027C4F20207B94221D058271AE000BFF1
:1035900040F24047C4F20207B94218D040F25847FF
:1035A00010E000BFA027C4F20207B9420FD0B8272D
:1035B00008E000BF40F2A047C4F20207B94206D0BB
:1035C00040F2B847C4F20207B94240F007824F699F
:1035D0003F0604D5AB60436D43F00203436504230B
:1035E000934033426FD0514510DC6F27C4F202077D
:1035F000B9421DDC3F27C4F20207B94234DC102770
:10360000C4F20207B94256D028274FE049451BDCD7
:1036100040F23F47C4F20207B9422DDC40F21047A6
:10362000C4F20207B94246D040F228473EE000BF4C
:103630009F27C4F20207B94228DC7027C4F20207B0
:10364000B94238D0882731E040F29F47C4F20207E0
:10365000B94223DC40F27047C4F20207B9422AD0D3
:1036600040F2884722E000BF4027C4F20207B94277
:1036700021D058271AE000BF40F24047C4F20207A9
:10368000B94218D040F2584710E000BFA027C4F25A
:103690000207B9420FD0B82708E000BF40F2A047A8
:1036A000C4F20207B94206D040F2B847C4F202079A
:1036B000B94240F09B810F68BF0704D5AB60436DF2
:1036C00043F004034365102303FA02F2324200F090
:1036D000828051454FF0080310DC6F27C4F20207C7
:1036E000B9421DDC3F27C4F20207B94234DC10277F
:1036F000C4F20207B94256D028274FE049451BDCE7
:1037000040F23F47C4F20207B9422DDC40F21047B5
:10371000C4F20207B94246D040F228473EE000BF5B
:103720009F27C4F20207B94228DC7027C4F20207BF
:10373000B94238D0882731E040F29F47C4F20207EF
:10374000B94223DC40F27047C4F20207B9422AD0E2
:1037500040F2884722E000BF4027C4F20207B94286
:1037600021D058271AE000BF40F24047C4F20207B8
:10377000B94218D040F2584710E000BFA027C4F269
:103780000207B9420FD0B82708E000BF40F2A047B7
:10379000C4F20207B94206D040F2B847C4F20207A9
:1037A000B94218BF04230F681F4214D0AA600A68E8
:1037B00052030A6808D4D20508D40A6822F0080225
:1037C0000A60016C21B906E0110351D4016C11B1FA
:1037D000044688472046C16D01F01F02202101FAEE
:1037E00002F3334200F0AF8001681027514511DC2D
:1037F0006F26C4F20206B1421EDC3F26C4F2020666
:10380000B14239DC1026C4F20206B1425BD0282650
:1038100054E000BF49451BDC40F23F46C4F20206BB
:10382000B14231DC40F21046C4F20206B1424AD045
:1038300040F2284642E000BF9F26C4F20206B14291
:103840002CDC7026C4F20206B1423CD0882635E05A
:1038500040F29F46C4F20206B14227DC40F27046B5
:10386000C4F20206B1422ED040F2884626E000BFE4
:10387000816C0029ACD1AEE74026C4F20206B14209
:1038800021D058261AE000BF40F24046C4F202069A
:10389000B14218D040F2584610E000BFA026C4F252
:1038A0000206B1420FD0B82608E000BF40F2A046A1
:1038B000C4F20206B14206D040F2B846C4F2020693
:1038C000B14218BF02270E683E423CD0AB6090F870
:1038D0003530042B0B681DD123F016030B604B69A8
:1038E00023F080034B61036C0BB9836C1BB10B6835
:1038F00023F008030B603F219140A960012180F86B
:103900003510016D00294FF0000280F8342057D1A6
:103910005AE000BF5A030A680CD4D2050ED40A68D4
:1039200022F010020A60012180F83510002180F891
:10393000341003E0110301D4416C00E0C16B11B1FC
:10394000044688472046416D00293DD0416DC90796
:1039500034D0042180F8351001684FEA98220B68B2
:1039600023F001030B60019B0133019393421AD8AA
:103970000B68DB0717D0019B01330193934212D8E8
:103980000B68DB070FD0019B0133019393420AD8E8
:103990000B68DB0707D0019B01330193934202D8E8
:1039A0000B68DB07DFD10968C9074FF0030108BFC7
:1039B000012180F83510002180F83410C16C19B154
:1039C00002B0BDE8F047084702B0BDE8F08700BF8D
:1039D000D90301D4416CF2E7C16BF0E70B68042313
:1039E000934033427FF4FFAD6DE600BF0B686AE69B
:1039F0002DE9F041044600F0EFFDFCB140F26F48C4
:103A000005462068C4F2020840451BDC9F21C4F231
:103A10000201884232DC5721C4F20201884259DC9B
:103A20001021C4F20201884200F083802821C4F2F0
:103A30000201884200F07D80402175E00120BDE850
:103A4000F08100BF45F22F41C5F60201884229DC12
:103A500040F2B741C4F20201884247DC40F27041B3
:103A6000C4F20201884264D040F28841C4F20201EB
:103A700088425ED040F2A04156E000BF40F22741AC
:103A8000C4F20201884241DCA021C4F20201884252
:103A90004FD0B821C4F2020188424AD040F210410E
:103AA00042E000BF45F26B41C5F60201884200F3D7
:103AB000B38045F23041C5F60201884200F0BF8074
:103AC00045F24441C5F60201884200F0B88045F253
:103AD0005841AFE05821C4F20201884229D0702138
:103AE000C4F20201884224D088211DE040F2B8418E
:103AF000C4F2020188421CD045F20841C5F6020119
:103B0000884200F09C8045F21C4193E040F228413D
:103B1000C4F2020188420CD040F24041C4F20201DA
:103B2000884206D040F25841C4F20201884240F077
:103B30001B81022184F83510002184F834100168BB
:103B400021F00101016000BF20680168C9070DD0A4
:103B500000F042FD401B0628F6D3202060650320BC
:103B600084F835000120BDE8F08100BF48F23F0233
:103B700004F108060168CFF61062114065694CCE69
:103B80001143A2691943E3693143266A0D43616A0F
:103B90002B43042943EA060343EA020303D1D4E991
:103BA0000B652E43334341F20006C5F600463668E6
:103BB000B6F1005F0FD36568A5F129061F2E00F24C
:103BC00035820127B7403F26CCF2C036374200F09D
:103BD0002D8243F4801303600429436923F0070313
:103BE00041EA030140F0DC80D4E90A53002B41EAAA
:103BF000050100F0D580B2F5005F00F0B780002A23
:103C000040F0C080022D00F0C080012D00F0B48093
:103C1000002D00F0BA80C3E045F26C41C5F6020108
:103C200088420CD045F28041C5F60201884206D098
:103C300045F29441C5F60201884240F0958004F1B6
:103C4000080E022184F83510002184F83410016830
:103C5000A3699EE80450A2F18005E769B5FA85F5ED
:103C600066696D09402A4FEA853543EA07026FF31A
:103C7000101142EA060208BF102541EADC0142EABF
:103C80000E02236A294341EAD20141EA131140F8A6
:103C90000819C0B2CD2148433C2101EA9020E065DB
:103CA0002046FDF791FAE16D012201F01F0102FAB1
:103CB00001F141602068404500F381809F21C4F2FA
:103CC0000201884214DC5721C4F20201884227DC39
:103CD0001021C4F20201884200F0C7802821C4F2FA
:103CE0000201884200F0C1804021C4F20201B9E023
:103CF00040F22741C4F20201884221DCA021C4F233
:103D00000201884200F0B180B821C4F20201884269
:103D100000F0AB8040F21041C4F20201A2E000BF0B
:103D20005821C4F20201884200F09F807021C4F241
:103D30000201884200F099808821C4F2020191E0DA
:103D400040F22841C4F20201884200F08E8040F225
:103D50004041C4F20201884200F0878040F258419D
:103D6000C4F202017EE000BF4020F7E6032D17D821
:103D7000DFE805F00E0B0E02A3F1C072B2FA82F278
:103D8000520904E0032D03D30AD1C3F300623AB110
:103D900040206065012084F83500BDE8F08100BF57
:103DA00041612046FDF710FAE16D3F2201F01F014D
:103DB00002FA01F18160206840457FF77FAF45F24C
:103DC0002F41C5F60201884216DC40F2B741C4F229
:103DD0000201884226DC40F27041C4F202018842AE
:103DE00043D040F28841C4F2020188423DD040F203
:103DF000A041C4F2020135E045F26B41C5F6020173
:103E000088421FDC45F23041C5F6020188422CD0C1
:103E100045F24441C5F60201884226D045F2584198
:103E20001EE000BF40F2B841C4F2020188421CD03B
:103E300045F20841C5F60201884216D045F21C4100
:103E40000EE000BF45F26C41C5F6020188420CD07D
:103E500045F29441C5F60201884206D045F2804100
:103E6000C5F60201884240F0D98045F2574C45F62C
:103E7000FC0EC5F6020CC5F6020E60450EDC45F2DE
:103E80002F41C5F60201884218DC45F20841C5F60B
:103E90000201884228D045F21C4121E045F27F41D1
:103EA000C5F60201884213DC45F25841C5F602010D
:103EB000884219D045F26C4112E000BF45F2304112
:103EC000C5F6020188420FD045F2444108E000BF28
:103ED00045F29441C5F60201884205D045F2804181
:103EE000C5F60201884247D100F0FC014CF6CD42F4
:103EF0000839CCF6CC42A1FB0212AEF1FC05AEF1C2
:103F00007C061309A26803F01F01802A4FF001020A
:103F100005EB8305256602FA01F26666A26605D105
:103F200000206060286072601EE000BF6368D9B244
:103F30005F1E072F2960726016D84E1E082E19D2F8
:103F400060450EF1440237DC45F22F41C5F602010F
:103F5000884241DC45F20841C5F60201884251D051
:103F600045F21C414AE000BF00206067C4E91B0025
:103F700054E000BFE06E4CE000F0F8014AF6AB22DE
:103F80001039CAF6AA22A1FB021240F20F43C4F272
:103F9000020308251109984203F1AA060B4688BFBF
:103FA00005EB121340F60005B042C4F2020505F11C
:103FB000800628BF0B46A5E745F27F41C5F6020102
:103FC000884213DC45F25841C5F60201884219D0F7
:103FD00045F26C4112E000BF45F23041C5F60201E6
:103FE00088420FD045F2444108E000BF45F28041CD
:103FF000C5F60201884205D045F29441C5F602019A
:1040000088421BD10EEB83000121E066B14022679C
:10401000616700210160D4E91C01416000206065F6
:10402000012184F83510BDE8F08100BFA5F14F07EC
:10403000042F38BF43F48013CDE500BF40F60000E5
:10404000C4F2020000F1FC0E00F5A072DAE70000F5
:1040500030B110B590F83440012C03D1022010BDCE
:1040600001207047012480F8344090F83540012C3D
:104070002CD1022480F8354000244465D0F800C0DB
:10408000DCF8004024F00104CCF800400446FDF7C1
:104090002FF940F20F4C2068C4F2020C40F26F413D
:1040A0006045C4F2020119DC6F23C4F20203984296
:1040B00026DC3F23C4F2020398423DDC1023C4F205
:1040C000020398425FD0282358E000BF4FF40061FC
:1040D0004165002180F83410012010BD88421BDCAE
:1040E00040F23F43C4F2020398422DDC40F21043F9
:1040F000C4F20203984246D040F228433EE000BF9B
:104100009F23C4F20203984228DC7023C4F2020306
:10411000984238D0882331E040F29F43C4F2020332
:10412000984223DC40F27043C4F2020398422AD042
:1041300040F2884322E000BF4023C4F202039842C9
:1041400021D058231AE000BF40F24043C4F20203DA
:10415000984218D040F2584310E000BFA023C4F2A8
:10416000020398420FD0B82308E000BF40F2B843E2
:10417000C4F20203984206D040F2A043C4F2020304
:10418000984240F02F8103680B2262F344030360DE
:10419000226C1AB1082302681A430260884219DCB3
:1041A0009F22C4F20202904232DC5722C4F2020281
:1041B000904259DC1022C4F20202904200F0968034
:1041C0002822C4F20202904200F090804022C4F201
:1041D000020289E045F22F42C5F6020290422DDC30
:1041E00040F2B742C4F2020290424BDC40F270420D
:1041F000C4F20202904279D040F28842C4F2020234
:10420000904273D040F2A042C4F202026CE000BFC0
:1042100040F22742C4F20202904243DCA022C4F2E0
:104220000202904262D0B822C4F2020290425DD0F3
:1042300040F21042C4F2020256E000BF45F26B4267
:10424000C5F6020290423FDC45F23042C5F602025A
:1042500090424BD045F24442C5F60202904245D00E
:1042600045F258423EE000BF5822C4F2020290429A
:104270003CD07022C4F20202904237D08822C4F2AD
:10428000020231E040F2B842C4F2020290422DD064
:1042900045F20842C5F60202904227D045F21C4280
:1042A00020E000BF40F22842C4F2020290421DD03A
:1042B00040F24042C4F20202904217D040F258420B
:1042C000C4F2020210E000BF45F26C42C5F60202E1
:1042D00090420BD045F29442C5F60202904205D0BE
:1042E00045F28042C5F60202904274D1236E1A68EC
:1042F000D20303D51A6842F480721A60E36E1BB1D0
:104300001A6842F480721A60604511DC6F21C4F2B1
:10431000020188421EDC3F21C4F20201884235DCE2
:104320001021C4F20201884255D0282150E000BF7C
:1043300088421BDC40F23F41C4F2020188422DDC7E
:1043400040F21041C4F20201884244D040F22841B8
:104350003EE000BF9F21C4F20201884228DC7021A8
:10436000C4F20201884236D0882131E040F29F41F8
:10437000C4F20201884223DC40F27041C4F202011F
:10438000884228D040F2884122E000BF4021C4F298
:10439000020188421FD058211AE000BF40F240417C
:1043A000C4F20201884216D040F2584110E000BF2A
:1043B000A021C4F2020188420DD0B82108E000BF5C
:1043C00040F2B841C4F20201884204D040F2A04158
:1043D000C4F202018842016841F00101016000203D
:1043E00010BD00BF0268052363F343020260226C24
:1043F000002A3FF4D3AE0423CDE600000000000005
:104400002DE9F04F83B00F68002F00F0C98000F154
:10441000264642F2004506F1FF76C5F602050A225D
:10442000A8424FEAB62540F2040C08BF092200F169
:1044300020030093092DC5F6000C38BF4FEAB622C1
:10444000002400264FF0000801920AE008F101085C
:104450000F6837FA08F206F1020604F1040400F0CE
:104460009F80012202FA08FE17EA0E09EED0D1F869
:1044700004B003220BF00307B2407D1E6FEA020A6C
:10448000012D11D88268CD6802EA0A02B5402A439C
:104490008260CBF30015426822EA0E0205FA08F5A5
:1044A0002A43426004E000BF032F01D103271FE02D
:1044B000C2688D6802EA0A02B540022F42EA05028C
:1044C000C26015D16FF0030204F01C0502EA580B1C
:1044D000009A0F2352F80BE0AB400F692EEA03035A
:1044E000AF403B4342F80B30D1F804B00BF0030768
:1044F000026807FA06F302EA0A021BF4403F42EAA6
:1045000003020260A2D044F2F44340F2084EC5F622
:104510000203C5F6000E0F251A6842F002021A6067
:104520001A6802F00202029228F00302029B04F0D1
:104530000C0352F80E709D40AF43019D05FA03F342
:104540003B4342F80E304FF0B04EDEF800204B688F
:1045500042EA0907DD0258BF22EA09079D02CEF8A8
:104560000070DCF8002042EA090758BF22EA090778
:104570009D03CCF80070DCF8802042EA090758BFA0
:1045800022EA0907DB03CCF88070DCF87C2042EAE1
:10459000090758BF22EA0907CCF87C7056E700BF2C
:1045A00003B0BDE8F08F0000426902EA01039143C5
:1045B00041EA034181617047002A08BF0904816113
:1045C000704700000000000041F20000C5F6004006
:1045D0000068000C704700004CF69020C2F20040CA
:1045E000006870470000000040F204004CF6902183
:1045F000C2F20040C2F2004100780A68104408602C
:10460000704700000000000080B5032000F010F9A2
:1046100001F02EFC44F218414CF61C63C5F6020171
:10462000C0F600030A68C2F303229A5C096801F02D
:104630000F0102F01F02595CD04040F21002C2F29A
:10464000004201F01F0120FA01F1116040F20C015B
:10465000C2F200410860032000F00AF800281CBFE5
:10466000012080BD00F07CF8002080BD000000002B
:10467000B0B540F20405C2F200452978F1B1044614
:1046800040F20C00C2F200404FF47A72B2FBF1F13A
:104690000068B0FBF1F001F063FF0F2C01464FF012
:1046A00001000AD8002918BFB0BD4FF0FF3000222A
:1046B000214600F08DF800206C60B0BD0120B0BD37
:1046C00010B54EF6A05E4378CEF2000E90F800C012
:1046D0004EF8083CDEF8003023F00103CEF800303D
:1046E00043684EF8043C037BC27A817A447B12060D
:1046F00042EA0372837B42EAC141C27B41EA8441C0
:10470000447A41EA4341007A41EA024141EA042104
:1047100041EA400040EA0C00CEF8000010BD000065
:104720004EF62450CEF20000BFF35F8F016821F4F3
:104730008031016000210167704700000000000027
:104740004EF6245140F00100CEF2000108670868DF
:1047500040F480300860BFF34F8FBFF36F8F704716
:1047600010B582B044F2F444C5F60204206840F06B
:1047700002002060206800F00200019001980420EF
:1047800000F056F8206840F400402060206800F4F3
:1047900000400090009801F0BFFE022002B0BDE88A
:1047A000104001F0C5BE0000002848BF704700F06F
:1047B0001F01012202FA01F14EF20012C0F34A1069
:1047C000CEF2000242F82010704700000000000006
:1047D00070B54EF60C5C4FF0FF36CEF2000C00F1D7
:1047E000604505F56445DCF80030C3F3022E8EF019
:1047F0000703042B28BF0423BEF1030406FA03F3C6
:1048000021EA030100F00F0338BF0024043B002815
:10481000634406FA04F048BF03F10C05A14022EA04
:10482000000008430001287070BD00000000000077
:104830004EF60C514FF6FF03CEF200010A681A4003
:1048400060F30A2242F0806040F0FD70086070471B
:10485000B0B544F60C05C5F6020529684907296874
:1048600006D401F00701081A18BF0120B0BD00BF2F
:1048700021F0070108432860FFF7AEFE044600BFA1
:1048800055F8080C800407D4FFF7A6FE001BB0F50E
:104890007A7FF5D90120B0BD0020B0BD0000000036
:1048A00080B501F05DFA44F220414CF61C62C5F679
:1048B0000201C0F600020968C1F30211515C01F067
:1048C0001F01C84080BD000080B544F23041C5F6EC
:1048D000020151F8083C51F8082C51F804CCC2F3FD
:1048E000051E4A68BEF1000F1AD0C2F3CC0203F0D5
:1048F000030300EE102A9FED3A1AB8EE400A20EEAC
:10490000010A9FED381ADFE803F00323110700BF07
:1049100051F8302C92060DD49FED331A18E000BFE9
:1049200000218160C0E9001180BD00BF9FED2F1AFA
:104930000EE000BF51F8302C49F20003C0F2D03332
:10494000C2F3C10223FA02F201EE102AB8EE411AB4
:104950000A689FED273A6FF35F2202EE102A5FEAA2
:10496000CC7203FE000A03EE10EA0A68B8EE422A8F
:10497000C2F34622B8EE433A013230EE020AB7EEF5
:10498000002A81EE031A30EE020A21EE000A01EE3F
:10499000102AB8EE411A80EE011ABCEEC11A80ED61
:1049A000001A0A68C2F30642013201EE102AB8EE7C
:1049B000411A80EE011ABCEEC11A80ED011A096895
:1049C000C1F30661013101EE101AB8EE411A80EE12
:1049D000010ABCEEC00A10EE101A816080BD00BF53
:1049E000000000390024744A0024744C20BCBE4BE3
:1049F000000000000000000080B544F2384EC5F60B
:104A0000020E5EF8103C5EF8101C5EF80C2CC1F330
:104A1000053CDEF80410BCF1000F19D0C9089FED69
:104A20003C1AD20601EAE27103F003026FF35F3130
:104A300000EE101AB8EE400ADFE802F0022210225F
:104A40005EF8381C89060DD49FED331A18E000BFBC
:104A500000218160C0E9001180BD00BF9FED2D1ACB
:104A60000EE000BF5EF8381C49F20002C0F2D032FE
:104A7000C1F3C10122FA01F101EE101AB8EE411A98
:104A8000DEF800109FED253A6FF35F2102EE101A59
:104A9000DEF80010C1F34621B8EE422A013100EEE3
:104AA000032A00EE10CAB7EE003AB8EE400A81EED3
:104AB000000A32EE031A20EE010A01EE101AB8EED7
:104AC000411A80EE011ABCEEC11A80ED001ADEF820
:104AD0000010C1F30641013101EE101AB8EE411A7F
:104AE00080EE011ABCEEC11A80ED011ADEF800104A
:104AF000C1F30661013101EE101AB8EE411A80EEE1
:104B0000010ABCEEC00A10EE101A816080BD00BF21
:104B10000024744A20BCBE4B0024744C00000039B1
:104B200080B544F2404EC5F6020E5EF8183C5EF8C1
:104B3000181C5EF8142CC1F3055CDEF80410BCF1FF
:104B4000000F19D0C9089FED3C1AD20501EAE271A5
:104B500003F003026FF35F3100EE101AB8EE400A63
:104B6000DFE802F0022210225EF8401C89060DD414
:104B70009FED331A18E000BF00218160C0E90011E9
:104B800080BD00BF9FED2D1A0EE000BF5EF8401CF7
:104B900049F20002C0F2D032C1F3C10122FA01F1A0
:104BA00001EE101AB8EE411ADEF800109FED253A1A
:104BB0006FF35F2102EE101ADEF80010C1F34621F8
:104BC000B8EE422A013100EE032A00EE10CAB7EE19
:104BD000003AB8EE400A81EE000A32EE031A20EEE7
:104BE000010A01EE101AB8EE411A80EE011ABCEE6D
:104BF000C11A80ED001ADEF80010C1F30641013140
:104C000001EE101AB8EE411A80EE011ABCEEC11A7C
:104C100080ED011ADEF80010C1F30661013101EEEA
:104C2000101AB8EE411A80EE010ABCEEC00A10EE6E
:104C3000101A816080BD00BF0024744A20BCBE4BA6
:104C40000024744C0000003910B584B0024641F6CF
:104C5000FF7300209B1A70EB010329DB40F2FF3346
:104C60009B1A70EB010351DA82F480630B4300F06E
:104C7000E58082F400630B4300F00E8182F48052E1
:104C8000114340F0A98144F20041C5F60201086DCC
:104C9000C0F30232042A00F2988148F20000C0F208
:104CA000BB00DFE812F00D010F012701990131016E
:104CB00047F6FF739B1A70EB010353DA82F400434B
:104CC0000B4300F0DB8082F480330B4300F004815F
:104CD00082F40022114340F07F8144F20041C5F686
:104CE0000201886DC0F301420020DFE812F0EB0002
:104CF00005000D01750100BF0868800040F1658165
:104D000001A8FFF70DFF039804B010BD82F4807373
:104D10000B4353D082F40072114340F05D8144F2A2
:104D20000041C5F60201086DC0F38212042A00F2A8
:104D30004C8148F20000C0F2BB00DFE812F0C10075
:104D4000C300DB004D010500C86C0A68520700F083
:104D50004052086802D5002A00F0DE80C00500F14C
:104D6000EF80F7E082F400530B434FD082F480428F
:104D7000114340F0318144F20044C5F60204A06DB5
:104D8000C0F30270052800F22081DFE810F0070070
:104D9000190103010D01F700270100BF00F0E0FF3A
:104DA000216A4CF61C62C0F60002C1F30211515C8C
:104DB00001F01F01C84004B010BD00BF44F2004123
:104DC000C5F60201086D00F00702042A00F2FD801A
:104DD00048F20000C0F2BB00DFE812F0720074007D
:104DE0008C00FE00060000BFC86C0A68520700F085
:104DF0004052086802D5002A00F08E80C00540F1BC
:104E0000A980B2F1805F00F09E80A3E044F20040F0
:104E1000C5F60200016DC1F30241052900F2D580FB
:104E2000DFE811F00600D000BA00C800AE00DE00D6
:104E300004B0BDE8104000F0BBBF00BF44F2004129
:104E4000C5F60201886DC0F34252042A00F2BD800B
:104E500048F20000C0F2BB00DFE802F032344CBE82
:104E6000040000BFC86C0A68520700F0405208688E
:104E700040F16480002A4FD060E000BF44F200415E
:104E8000C5F60201086DC0F301720020DFE802F0F0
:104E9000021874A40868A4E044F20041C5F60201B7
:104EA000886DC0F30262042A00F28F8048F200008D
:104EB000C0F2BB00DFE802F004061E90280000BF2D
:104EC000086811E00868000140F17F8001A8FFF741
:104ED00093FD019804B010BD44F20040C5F60200F5
:104EE000C16C0068C90321D480016ED501A8FFF709
:104EF000EBFC70E00868800067D501A8FFF710FEA2
:104F0000019804B010BD00BFC86C0A68520700F0D9
:104F10004052086812D58AB9C0F3C10049F20001B5
:104F2000C0F2D03121FA00F004B010BD00014CD520
:104F300001A8FFF761FD039804B010BDC00509D5B5
:104F4000B2F1805F06D140F60010C0F23D0004B01F
:104F500010BD00BF0868B2F1005F00F400314FF0EF
:104F6000000004BF47F64000C0F27D10002908BFD2
:104F7000084604B010BD00BF086824E0206800E0C7
:104F8000006840F60011C005C0F23D0101EAE07082
:104F900004B010BD206800E00068800015D501A8AD
:104FA000FFF7BEFD17E000BF206840070DD5206861
:104FB000B2E700BF0168490707D50068ACE700BF4A
:104FC000206800E00068000102D4002004B010BD99
:104FD00001A8FFF711FD029804B010BD206800E0A1
:104FE000006847F640018003C0F27D1101EAE070DD
:104FF00004B010BD000000002DE9F0470446C07861
:1050000044F22C480007C5F6020828D5A06E4FEAE6
:10501000305103292AD8DFE801F0030B131B00BF2E
:10502000D8F8001041F40031C8F8001010E000BFBB
:1050300004F10800022102F043FF064680B906E0B1
:1050400004F12800022102F0CFFF064640B9A06E0D
:10505000D8F8241021F440110843C8F82400002691
:105060006078C00706D135462FE000BF0126607882
:10507000C007F8D0A06D042858D83546DFE800F006
:1050800004140E0B0B0000BFD8F80000354640F4A6
:105090000030C8F800002F46C5B90DE004F1280023
:1050A000002102F0A1FF04E004F10800002102F059
:1050B00007FF05462F464DB9D8F82400A16D20F012
:1050C000070000250843C8F82400374660788007A9
:1050D00031D5E06D4FEAB01004285FD8DFE800F06A
:1050E00004140E0A0A0000BFD8F8000040F4003093
:1050F000C8F800002E46FDB90EE000BF04F12800FC
:10510000002102F071FF04E004F10800002102F028
:10511000D7FE05462E467DB9D8F82400E16D20F46F
:10512000E07000250843C8F8240004E001250127A9
:1051300060788007CDD43E466078400733D5D4F8F8
:10514000A8004FEA7050042860D8DFE800F003138D
:105150000D090900D8F8000040F40030C8F800003C
:10516000A9460DBB0EE000BF04F12800002102F0AB
:105170003BFF04E004F10800002102F0A1FE054617
:10518000A9468DB9D8F82C00D4F8A81020F46000F6
:1051900000250843C8F82C0005E000BF01250126C2
:1051A00060784007CBD4B1466078000734D5D4F896
:1051B000AC004FEA306004285ED8DFE800F003134B
:1051C0000D090900D8F8000040F40030C8F80000CC
:1051D0002F4615BB0EE000BF04F12800002102F0AD
:1051E00003FF04E004F10800002102F069FE054617
:1051F0002F4695B9D8F82C00D4F8AC1020F0E06018
:1052000000250843C8F82C0006E000BF01254FF038
:10521000010960780007CAD44F46E078800730D58E
:10522000E06C4FEA3010032820D8DFE800F00903D3
:10523000150900BFD8F8000040F40030C8F800009D
:105240002E46ADB9D8F82000E16C20F030000025E2
:105250000843C8F8200014E004F10800022102F01D
:105260002FFE05462E461DB9ECE700BF012501269D
:105270006078C00609D434E001250127E078800772
:10528000CED43E466078C0062BD5206E4FEA303033
:10529000042839D8DFE800F004140E0A0A0000BF21
:1052A000D8F8000040F40030C8F800002F46CDB90F
:1052B0000EE000BF04F12800002102F095FE04E09A
:1052C00004F10800002102F0FBFD05462F464DB910
:1052D000D8F82400216E20F4E04000250843C8F8E7
:1052E000240037466078800635D5606E4FEA30403E
:1052F000052815D8DFE800F0041A0E04040400BFE6
:105300002E46DDB91EE000BF01250127607880062A
:10531000EBD420E004F12800012102F065FE0AE050
:10532000012501266078400619D449E004F10800FF
:10533000012102F0C5FD05462E461DB160784006EC
:105340000DD43DE0D8F82400616E20F4E020002563
:105350000843C8F824003E466078400630D5D4F8AB
:10536000B0004FEA307005280ED8DFE800F00313D4
:10537000070303032F46ADB918E000BF04F128006E
:10538000012102F031FE0AE00125012760780006C4
:105390001AD43CE004F10800012102F091FD054619
:1053A0002F461DB1607800060ED430E0D8F82C00EE
:1053B000D4F8B01020F0E04000250843C8F82C00D5
:1053C00037466078000622D5206F58B1B0F1005FF3
:1053D0000CD0B0F1805F37D1D8F8000040F4003035
:1053E000C8F800002E469DB908E000BF04F108008F
:1053F000012102F065FD05462E464DB9D8F824007E
:10540000216F20F0405000250843C8F824003E4694
:10541000E078C0071DD0A06C032855D8DFE800F065
:1054200008024A08D8F8000040F40030C8F800002C
:10543000A9467DB9D8F82000A16C20F00300002512
:105440000843C8F8200004E001250126E078C007E1
:10545000E1D1B146A078400602D44F4618E000BF23
:10546000D8F8D40340F48070C8F8D403FFF7B4F838
:10547000064600BFD8F8D403C00507D4FFF7ACF840
:10548000801B6428F6D90325032701E02F46FDB1D0
:105490002078C00700F06F80E06F4FEAF000052829
:1054A0004ED8DFE800F0035347030303002D2E46D8
:1054B00054D157E004F10800022102F001FD054635
:1054C000002DA946C6D1B5E701254FF00109C1E776
:1054D000D8F84410D4F8B400414011F4407F11D002
:1054E000D8F84410D8F8442042F48032C8F8442058
:1054F000D8F8442021F4407122F48032C8F84420C6
:10550000C8F84410B0F5807F40F0E082FFF764F8FF
:10551000064641F2883A0325032700BFD8F8440025
:10552000800700F1D182FFF757F8801B5045F5D96D
:10553000AEE700BF04F12800012102F055FD0AE0AA
:10554000012501262078800719D446E004F10800DF
:10555000012102F0B5FC05462E461DB120788007DA
:105560000DD43AE0D8F82800E16F20F0380000258B
:105570000843C8F828003E46207880072DD5A06F44
:1055800005280FD8DFE800F004140804040400BF65
:105590002F46ADB918E000BF04F12800012102F048
:1055A00023FD0AE0012501272078400719D447E0B0
:1055B00004F10800012102F083FC05462F461DB1CD
:1055C000207840070DD43BE0D8F82800A16F20F0E8
:1055D000070000250843C8F8280037462078400710
:1055E0002ED5D4F8940005280ED8DFE800F0031378
:1055F000070303032E46ADB918E000BF04F12800ED
:10560000012102F0F1FC0AE0012501262078800644
:105610001AD44BE004F10800012102F051FC0546C8
:105620002E461DB1207880060ED43FE0D8F82C001D
:10563000D4F8941020F0070000250843C8F82C0087
:105640003E462078800631D5D4F890004FEA30707D
:1056500005280FD8DFE800F004140804040400BF94
:105660002F46ADB918E000BF04F12800022102F076
:10567000BBFC0AE001250127207840061AD44BE044
:1056800004F10800002102F01BFC05462F461DB165
:10569000207840060ED43FE0D8F82800D4F89010C7
:1056A00020F0E04000250843C8F82800374620785D
:1056B000400631D5D4F89C004FEAB02005280FD819
:1056C000DFE800F004140804040400BF2E46ADB95E
:1056D00018E000BF04F12800022102F085FC0AE076
:1056E00001250126207800061AD44EE004F10800B6
:1056F000002102F0E5FB05462E461DB1207800068C
:105700000ED442E0D8F82C00D4F89C1020F4E050DD
:1057100000250843C8F82C003E462078000634D502
:10572000D4F8A0004FEA7030052815D8DFE800F063
:10573000041A0E04040400BF2F46E5B120680107D7
:1057400027D4C1063ED4000355D477E004F12800E5
:10575000022102F049FC0AE0012501272068010727
:10576000EFD516E004F10800002102F0A9FB054680
:10577000002D2F46E2D1D8F82C00D4F8A01020F448
:10578000604000250843C8F82C0037462068010710
:10579000D7D5D4F88400B0F5805F09D104F1280092
:1057A000022102F021FC002818BF0127D4F8840050
:1057B000D8F8281021F440510843C8F82800206880
:1057C000C106C0D5D4F89800B0F5807F09D104F1A6
:1057D0002800022102F008FC002818BF0127D4F895
:1057E0009800D8F82C1021F440710843C8F82C0018
:1057F0002068000322D5D4F8A400B0F5003F11D0F2
:10580000B0F5803F08D0002844D104F10800002101
:1058100002F056FB05E000BF04F12800022102F06F
:10582000E3FB05462E4655B9D8F82C00D4F8A41051
:1058300020F4403000250843C8F82C003E46A078EC
:1058400040072CD5D4F88800B0F5401F0BD0B0F538
:10585000001F0BD0B0F5801F2AD1D8F8000040F40B
:105860000030C8F800002F46D5B907E004F1280041
:10587000012102F0B9FB05462F468DB9D8F8280062
:10588000D4F8881020F4401000250843C8F82800F8
:1058900005E000BF01250126A0784007D2D4374695
:1058A000A078C00709D13E462168880015D532E0AE
:1058B00001250127A078C007F5D0206DB0F5803F05
:1058C00010D018BBD8F8000040F40030C8F8000031
:1058D0002E4685B1216888001DD460688A0326D4CD
:1058E00069E000BF04F10800022102F0E9FA054670
:1058F000002D2E46EED1D8F82000216D20F4803006
:1059000000250843C8F82000CDE700BF0125012687
:1059100021688800E1D504F12800022102F064FB2F
:10592000002818BF0126D4E900108A0343D5D4F813
:1059300080206FF0010303EB3223022B0BD34FEADD
:10594000322343B1012B40F0B980D8F8003043F442
:105950000033C8F800303DB3CA022FD4CA0037D490
:105960008A0240D44A0048D4CA0F55D109025DD4F6
:10597000C10766D181076FD4410779D4010700F1CF
:105980008380C10600F18C80800607D504F12800D1
:10599000022102F029FB002818BF0125002D18BFA5
:1059A00001252846BDE8F087D8F8283023F4407355
:1059B0001A43C8F828203546CA02CFD5D8F8242083
:1059C000636F22F000421A43C8F82420CA00C7D5EA
:1059D00058F81C2CD4F8B83022F480421A4348F806
:1059E0001C2C8A02BED5D8F82420E36E22F08072E7
:1059F0001A43C8F824204A00B6D558F81C2C22F4C3
:105A0000004248F81C2CD4F8BC2058F81C3C1A431F
:105A100048F81C2CCA0FA9D0D8F82020636D22F0BA
:105A200040521A43C8F820200902A1D5D8F82810FE
:105A3000D4F88C2021F440011143C8F82810C10784
:105A400098D004F10800002102F03AFA002818BFAB
:105A50000546606881078FD504F10800012102F036
:105A60002FFA002818BF0546606841077FF586AF0A
:105A700004F10800022102F023FA002818BF0546AD
:105A8000606801077FF57DAF04F12800002102F076
:105A9000ABFA002818BF05466068C1067FF574AFF1
:105AA00004F12800012102F09FFA002818BF0546E2
:105AB000606880063FF56AAF70E700BF0125CA0243
:105AC0007FF54CAF7AE700BFD4F8B4004FF6CF7340
:105AD00058F81C2CC0F2FF0300F4407122F47C52F1
