:020000040800F2
:10000000A82300242104000889970008D190000843
:10001000819700080127000821CB0008000000009C
:10002000000000000000000000000000E999000846
:10003000712B0008000000009197000861B00008D3
:100040003F0400083F0400083F0400083F04000884
:100050003F0400083F0400083F0400083F04000874
:10006000792B0008812B0008892B0008092700083C
:10007000312700083F0400083F0400083F0400083F
:100080003F0400083F040008F12600083F04000870
:100090003F0400083F0400083F0400083F04000834
:1000A0003F04000839B200083F0400083F0400087C
:1000B0003F0400083F0400083F0400083F04000814
:1000C0003F0400083F0400083F0400083F04000804
:1000D0003F040008C9CA00083F0400083F040008A4
:1000E0003F0400083F040008000000003F0400082F
:1000F0003F0400083F0400083F0400083F040008D4
:100100003F0400083F0400083F0400083F040008C3
:1001100099B30008A9B300083F0400083F04000891
:100120003F0400083F0400083F0400083F040008A3
:100130003F0400083F0400083F0400083F04000893
:1001400000000000000000000000000000000000AF
:100150003F0400083F0400083F0400083F04000873
:100160003F0400083F0400083F0400083F04000863
:100170003F0400083F0400083F0400083F04000853
:100180003F0400083F0400083F0400083F04000843
:100190003F0400083F0400083F0400083F04000833
:1001A0003F0400083F0400083F0400083F04000823
:1001B0003F0400083F0400083F0400083F04000813
:1001C0003F0400083F0400083F0400083F04000803
:1001D0003F0400083F0400083F0400083F040008F3
:1001E0003F0400083F0400083F0400083F040008E3
:1001F0003F0400083F0400083F0400083F040008D3
:100200003F0400083F0400083F0400083F040008C2
:100210003F0400083F0400083F0400083F040008B2
:100220003F0400083F0400083F04000800000000ED
:100230003F0400083F040008000000003F040008DD
:100240003F0400083F0400083F0400083F04000882
:100250003F0400083F0400083F0400083F04000872
:100260003F0400083F0400083F0400083F04000862
:100270003F0400083F0400083F040008000000009D
:100280003F0400083F0400083F040008000000008D
:10029000000000003F04000800F002F800F0B0F891
:1002A00014A696E8000CB244B344DA4501D100F03C
:1002B000A7F8BAE80F000FA696E83000A5EB0405F2
:1002C00004EB0607AAEB0704A7F101074FEA15158F
:1002D0004FEA3414A4F10104AC4201D300F090F8C9
:1002E00013F0010F18BFFB1A43F0010300F001F8EF
:1002F000DBE7184788D90000A8D90000103A24BFCE
:1003000078C878C1FAD8520724BF30C830C144BF7A
:1003100004680C6070470000704700000023002450
:1003200000250026103A28BF78C1FBD8520728BF05
:1003300030C148BF0B6070476E2900F0FD81702905
:1003400000F03F8366290DF0E08365290DF0DD8321
:1003500067290DF0DA8361290DF0D98303681B0A40
:1003600028BF41F08001692900F0AA81642900F0CA
:10037000A781752900F0A4816F2900F0CD8278292A
:1003800000F00B83E92900F06782E42900F0648221
:10039000F52900F06182EF2900F0CA82F82900F007
:1003A0000A830368DB0928BF41F08001632901F05B
:1003B0000B80732901F01080E32901F01B80F329E1
:1003C00001F02080002070471FB50DF091FB9DE8E3
:1003D000030001F0B1FC01F02BFA04000020002121
:1003E0000DF070FB401C6060002000210DF054FBFC
:1003F000E06001F0FDF81FBD10B501F062F910BD1D
:1004000001F0E9F91146FFF7DFFF0CF08DFD01F077
:1004100061FC03B4FFF7F0FF03BC01F0BFFD000077
:100420000A4880470A4880470A480047FEE7FEE737
:10043000FEE7FEE7FEE7FEE7FEE7FEE7FEE7FEE794
:1004400005480649064A074B70470000A12B0008E3
:1004500049B1000899020008A81D0024A82300241F
:10046000A81F0024A81F002453EA020C00F0698092
:100470002DE9F04B4FF00006002B1FBFB3FA83F5B8
:1004800003FA05F424FA05F65E4012BF1643B2FAE9
:1004900082F502FA05F4C5F120051EBF22FA05FC1B
:1004A00044EA0C04203556EA044C4FEA144418BFC1
:1004B000641C4FF000084FF00009904271EB030CF0
:1004C00039D3002919BFB1FA81F701FA07F6B0FA5A
:1004D00080F700FA07F6C7F120071EBF20FA07FCD5
:1004E00046EA0C062037B6FBF4FCA7EB0507103FE5
:1004F00007F01F0BCBF120062CFA06F60CFA0BFBCB
:1005000044BFB3460026202FA4BF5E464FF0000B29
:100510005BEA060C08BF4FF0010B19EB0B0948EB27
:100520000608ABFB027C06FB02CC0BFB03CCC01B1A
:1005300071EB0C01C1E70B46024641464846BDE857
:10054000F08B13B5084318BF4FF0FF300146AFF3EF
:100550000080BDE81C4070471CB50C46064B7B4430
:1005600069460090204600F000F9044600206946E4
:1005700000F00EF920461CBD2F02000010B5044605
:1005800003E00DF07AFA401C09D014F8010B05497C
:100590000028F6D1BDE810400A200DF06EBA4FF0E9
:1005A000FF3010BD8C0000244FF0000200B5134650
:1005B00094469646203922BFA0E80C50A0E80C5083
:1005C000B1F12001BFF4F7AF090728BFA0E80C5034
:1005D00048BF0CC05DF804EB890028BF40F8042B2D
:1005E00008BF704748BF20F8022B11F0804F18BF9A
:1005F00000F8012B704770477047704770B504468C
:1006000085690068C10601D5302600E02026C007B4
:1006100007D070BDD4E9012130469047206A401CC4
:1006200020626D1EF6D570BD70B5044685690078F0
:10063000C00707D170BDD4E9012120209047206A6E
:10064000401C20626D1EF6D570BD09684A0501D5B3
:1006500040B27047C905FCD500B2704709684A0529
:1006600001D5C0B27047C905FCD580B2704770B5DE
:100670000C460546012A05D02878800600D5EA698F
:10068000002302E0012305E05B1C934202D2E05C00
:100690000028F9D1A869E618C01AA861286A184488
:1006A00028622846FFF7AAFF04E0D5E9012114F8E3
:1006B000010B9047B442F8D32846FFF7B5FF70BD51
:1006C0002DE9F0410646002410687529314616A52B
:1006D00010D0FFF7BAFF002802DA404213A507E066
:1006E00031688A0701D512A502E0490704D511A592
:1006F000012401E0FFF7B2FF00210A2206F12407DE
:1007000009E0B0FBF2FCB0FBF2F302FB1C0030305E
:1007100078541846491C0028F3D123462A4630460F
:10072000BDE8F04100F061BA000000002D000000BB
:100730002B0000002000000011680268006A5305C9
:1007400001D508700AE0D30501D5088006E013063C
:1007500003D5C217C1E9000200E00860012070471C
:1007600001694A1C02610878704700B58FB0CDE975
:1007700001310021059105497944CDE90310114665
:10078000684600F029F90FB000BD0000E5FFFFFF4B
:100790000A6802F8010B0A60704700002DE9FF5F4C
:1007A00015468A460446DFF8AC80F8440027D8E9AD
:1007B00000103E46CDE9001010E03AF816106A46E7
:1007C00002A800F0B1FF411C07D02178890603D5AB
:1007D000E269391891420DD80744761C20788006CA
:1007E00002D5E069B84205DDAE42E6DB3AF8160014
:1007F0000028E2D1A069C01BA0612046FFF7FEFEE1
:10080000D8E90010CDE90010002017E03AF81810E0
:100810006A4602A800F088FFB0F1FF3F81460BD086
:1008200000250DF1080B05E0D4E901211BF80500B6
:1008300090476D1C4D45F7D308F10100B04280464A
:10084000E4DB206A384420622046FFF7EDFEBDE875
:10085000FF9F000066D300002DE9F0418046D21DC5
:1008600022F007020025D2E90002F52915A614D0CE
:10087000011E72F1000106DA0023D0EB030063EBE6
:10088000020211A608E0D8F800108B0701D50FA6C8
:1008900002E0490701D50EA601251146002408F102
:1008A000240704E000F05CF930323A55641C50EA49
:1008B0000102F7D12B46324621464046BDE8F041C1
:1008C00000F093B9000000002D0000002B00000094
:1008D0002000000030B4002100F1240408E002F000
:1008E0000705D208303542EA4372DB086554491CDB
:1008F00052EA0305F3D10468002310A2250708D5A6
:1009000004F020040C4304D0C46901230CA2641E2B
:10091000C46130BC00F069B910B5044621461068C6
:10092000FFF79CFE02462046BDE810400023D1E7B9
:10093000D21D22F00701D1E90023CBE7000000001F
:1009400030000000F0B40D460188090502D5214CA5
:100950007C4402E01F4C7C440E34002100F124064C
:1009600008E002F00F071209E75D42EA03721B0973
:100970007754491C52EA0307F3D102780023120787
:1009800004D5702D06D009B1022311342246F0BCE3
:1009900000F02BB901231034F8E770B504460D467A
:1009A00021461068FFF75AFE024629462046BDE858
:1009B00070400023C6E7D21D22F00703D3E90023CD
:1009C000C0E70368126843F0200303600823C36193
:1009D0000023B7E7C8D100002DE9F05F894604463F
:1009E0004FF0000ADFF874B1FB44C0F820A02046A5
:1009F000E1688847002874D0252806D0D4E9012171
:100A00009047206A401C2062F1E700265F4620469E
:100A1000E16888472028054607DB312D05D2781983
:100A200010F8200C08B10643F1E7B00701D526F015
:100A30000406C4F81CA00027C4F818A02A2D09D069
:100A400028460DF013F838B304EB8708303DC8F89A
:100A5000185019E059F8041B204604EB87029161F5
:100A6000E1688847012F054618D1E069002820DA9F
:100A700026F020061DE0D8F8180000EB800005EBFA
:100A800040003038C8F818002046E168884705461D
:100A90000CF0ECFF0028EED1012F0AD02E2D08D14A
:100AA0002046E16888477F1C0546022F46F0200655
:100AB000C4DBA069002803DA404246F00106A061C9
:100AC000F00701D026F010066C2D0BD0682D09D050
:100AD0004C2D39D06A2D35D0742D35D07A2D33D0A8
:100AE00016E038E0E1682F4620468847B8420546C0
:100AF00009D16C2F26D04FF48060E1680643204670
:100B00008847054604E06C2F1AD04FF480700643E6
:100B10000DB3A5F14100192802D8203546F400662E
:100B20004A462946204626604E46FFF705FC80B11E
:100B300001280BD0F61D26F0070000F1080956E742
:100B40004020E4E78020D8E70020D6E706F104093A
:100B50004DE7284652E7206ABDE8F09F58D10000D3
:100B600030B5B0F10A0271F100034FEA900E4EEA7F
:100B7000817EB0EB0E0061EB91014FEA101E4EEA50
:100B8000017E10EB0E0041EB11114FEA102E4EEAE0
:100B9000016E10EB0E0041EB11214FEA104E4EEAB0
:100BA000014E10EB0E0041EB1141401841F10001E4
:100BB0004FEAD00040EA41704FEAD1014FEA810488
:100BC00044EA907410EB800544EB01046D1944EB8A
:100BD0000404521BA3414FF0000348BF0A3200D562
:100BE00030BD401C41F1000130BD2DE9F0470D46FC
:100BF00099469246044600F124080168880604D507
:100C0000E06921F01001216000E00120A84201DD2F
:100C1000471B00E00027A1697A1902EB0900081AB6
:100C2000A0612078C00602D42046FFF7E7FC00262A
:100C300008E0D4E901211AF806009047206A401C18
:100C4000761C20624E45F4DB2078C0060AD520468B
:100C5000FFF7D4FC06E0D4E9012130209047206A58
:100C6000401C2062381EA7F10107F4DC07E0D4E93C
:100C7000012118F805009047206A401C2062281EB8
:100C8000A5F10105F3DC2046FFF7CEFC2078000635
:100C900002D50220BDE8F0870120FBE72DE9FF4FD8
:100CA0000C461E464FF0FF378BB0D2E90001DDF84D
:100CB00060800A908A46C1F30A5505B93D46002175
:100CC00008464FF00000BAF1000F00F4400005DACA
:100CD00000EB80004FF4400101EA50004FEA9059C8
:100CE000B9F1010F00DDB9460A9850EA4A000ED06A
:100CF00044F61050A5F2FF3545432F14B8F1000F0C
:100D00001ED07542291E1EDDC9F100021CE0B8F19B
:100D1000010F4FF0000001D0302103E0F24305E065
:100D20002154401CB042FBDB3046002200212154FC
:100D30000B99C1F80880C1E900200FB0BDE8F08F21
:100D4000BD1B6D1CDEE74A4600DA694206A800F0CA
:100D500009FE06AB93E8070003AB83E807005046A3
:100D60000A990CF0A3FA8DE80700A0F500501F388F
:100D700000900398002D0ADD42F21F014A46084404
:100D8000002303A9039068460CF00CFD09E0A0F5D0
:100D900000504A461F38002303A9039068460CF010
:100DA00016FD8DE807000004000C03D04FF0FF3063
:100DB000410800E01046B8F1000F03D00022009275
:100DC00015461EE0751E05D4FFF7CAFE3032625587
:100DD0006D1EF9D5B3460122084302D000227F1CC4
:100DE00004E02078302801D100227F1E002A0997D4
:100DF00084D01DE0112D07DAFFF7B2FE30326255C4
:100E00006D1C50EA0102F5D1084302D00098C8B128
:100E10000EE00021681E05E0235C625C63542254EE
:100E2000401E491C8142F7DBAB46A81B401E0990BF
:100E3000002004F80B000B98099AC0F80880C0E95C
:100E4000002B7AE711264FF0000857E72DE9F04F05
:100E500088460446D21D22F0070191B0D1E9000175
:100E6000CDE90A010CF0EAFD02460B98C00F01D053
:100E70002D2007E02068810701D52B2002E02021EA
:100E800001EAC000032A099001D0072A05DB0346C6
:100E90004146204600F026FD0BE12078800601D572
:100EA000E06900E00620B8F1650F814606D0B8F190
:100EB000660F18D0B8F1670F70D131E00020B9F19A
:100EC000110F009001DB112301E009F101030AAACF
:100ED00001A90CA8FFF7E2FEDDE90C70002609F17C
:100EE0000105834647E001204B4600904FF0004744
:100EF0000AAA01A90CA8FFF7D1FEDDE90DB00C99F3
:100F00005D46002610B909F101000D18B9EB050086
:100F100003D4C0F1FF3609F10105A5EB09002BE070
:100F2000B9F1010F01DA4FF001090020B9F1110FF9
:100F30000090484601DD112300E003460AAA01A9FA
:100F40000CA8FFF7ABFEDDE90C704D46002683468A
:100F5000207800070AD4AB4500DA5D4601A8012DD0
:100F600004DD411911F8011C302907D04F4502DA80
:100F700017F1040F04DA012082460FE06D1EEEE740
:100F8000002F02DCED1B3E4403E0781CA84200DD8C
:100F90007D1CB81B00F1010A4FF0004720780007C4
:100FA00003D4AA4501DB4FF0FF3A0021B7F1004F0F
:100FB0000DF143088DF8431024D002202B23002F7D
:100FC00001DA7F422D230A21021EA0F1010000DC7C
:100FD0005FB197FBF1FC97FBF1F201FB1C7C17461C
:100FE0000CF1300C08F801CDEEE7A8F10100037018
:100FF0002188090501D5452100E06521A0F10108FE
:1010000000F8011C09980FA9A1EB0807FF1D00B10A
:101010000120411901EBEA70A1693844081A401E09
:10102000A0612078C00602D42046FFF7E7FA0998AD
:1010300028B1D4E901219047206A401C2062207821
:10104000C00622D52046FFF7D9FA1EE0002E04DBA9
:10105000B34502DD01A8805D00E03020D4E9012124
:101060009047206A401C2062761CAAF101005FEACA
:10107000000A0AD100F0DCFBC0680168405CD4E9DA
:1010800001219047206A401C2062281EA5F101051D
:10109000DCDC07E0D4E9012118F8010B9047206A55
:1010A000401C2062381EA7F10107F3DC2046FFF741
:1010B000BBFA032011B041E62DE9F04F04460D467E
:1010C000D21D22F0070089B0D0E900974846394682
:1010D0000CF0B4FC0246F80F01D02D2307E0206885
:1010E000810701D52B2302E0202101EAC0038DF8FE
:1010F00020300BB1012000E00020032A824601D0FD
:10110000072A04DB2946204600F0ECFB3FE120786B
:10111000800601D40D2500E0E569C7F30A560D2DC0
:1011200049DA00214FEA175B08464FF00000002F14
:1011300000F4400007DA00EB80004FF4400100EBC0
:10114000D07001EA60008115012901DD4FF0FF3107
:1011500000224FEA850CBCF1180F06D31346ACF100
:1011600018004FF08052C24003E04FF4801323FA7E
:101170000CF30CF10C0CBCF1200F04D3ACF1200CDF
:1011800009FA0CF001E007FA0CF000294FF00048D2
:1011900001DD18B90FE00ED140450CD319EB02095F
:1011A0005F4121B9404502D19F4329EA0209BBEBC7
:1011B000175F00D0761C2088000502D57B48784454
:1011C00002E07A487844193808AA302302F80A3035
:1011D000037C0AF10101002E0AF1020A53546A4607
:1011E00002DC4FF0300101E04FF031014FF0010817
:1011F0008DF8001002D0A6F2FF3603E059EA47014D
:1012000000D06B4E002D02DC2178090704D54FF089
:1012100002082E218DF80110C44600210BE0C7F30F
:1012200003433F01C35C491C6D1E02F808300529C9
:1012300008F1010801DA002DF1DC00210CE000EBDF
:101240001973491C1B786D1E082902F808304FEAF3
:10125000091908F1010801DA002DF0DC21688B067C
:1012600002D516E0A8F10108E04505DD02EB080310
:1012700013F8013C302BF5D0B8F1000F09DD02EB7B
:10128000080313F8013C2E2B03D1090701D4A8F160
:101290000108002D05DD3E2102F808106D1E08F141
:1012A0000108407C002E02F8080008F1010804DA69
:1012B0002D20764202F8080002E02B2002F80800F8
:1012C0000A214FF47A70864208F101080BDB96FB85
:1012D000F0F3303302F8083096FBF0F308F1010820
:1012E00000FB136601E0642E0CDB642096FBF0F338
:1012F000303302F8083096FBF0F308F1010800FBE8
:10130000136601E00A2E06DB96FBF1F0303002F89E
:10131000080008F1010896FBF1F001FB1060303085
:1013200002F80800A16908F1010808EB050202EBC8
:101330000A00081AA0612078C00602D42046FFF7F0
:101340005DF9216A08AE01EB0A00206204E0D4E9ED
:10135000012116F8010B9047BAF1010AF7D2207863
:10136000C00602D52046FFF749F96E4609E016F897
:10137000010B3E280FD0D4E901219047206A401C80
:101380002062B8F10108F2D22046FFF74DF909B00A
:101390000320BDE8F08F206A2844206203E0D4E9EE
:1013A0000121302090476D1EEBD3F8E7A6C900005D
:1013B00002FCFFFF10B5436913B1AFF3008001E0F9
:1013C000FFF755F9012010BD127800F124010A70D1
:1013D00000224A700122EDE711684FF0FF32E9E781
:1013E00010B5436913B1AFF3008001E0FFF7D6F900
:1013F000012010BD128800F1240182840022C284E1
:101400000122EDE711684FF0FF32E9E72DE9F05FC7
:10141000054617460C46C86820F4201040F48000AA
:10142000C860800602D5084600F095FBE06841F2EE
:1014300082014FF0FF3A0140022903D0204600F01C
:1014400027FBB9E000F42041B1F5004F0FD1C003F4
:1014500006D56168E06A884200D80846606006E008
:101460002069E0626060606900F0AFF9A061A06887
:101470000022EEB200280DDAE1688B050AD4C043E1
:10148000A06041F490302260E0606068411C6160BF
:101490000670AAE0E0689146226040F40050E060E7
:1014A000206978BB606900F082F904F124054FF0EF
:1014B0000108A8B1A08910F4407F08D0E06900F0CD
:1014C000BBF9206118B1E06840F4006017E0C4F88F
:1014D0001C802561E06820F4407040F480600EE0DC
:1014E000E06900F0A9F900282061F0D0E06840F43C
:1014F000006010F4407FE06002D140F48070E06052
:1015000020696060E06825696FF0010BC1051ED598
:101510006168E06A884200D80846411B04D0224630
:10152000284600F0BFFAE8BB1FB1E562C4E90159E3
:1015300059E0681CE0626060E069401EA060E068FD
:1015400040F48030E06030462E70BDE8F09F17B167
:1015500000F480320AE06068411C61600670E06857
:101560000A2E40F48030E06006D00022E16A606814
:10157000814203D90B4602E00122F7E70346B4F8A3
:101580000CC05B1B5FEA4C5C04D4D4F81CC09C45C7
:1015900000DD02B3814200D80146002BA1EB000818
:1015A000E56200E008E0C4E9015907DD224619467A
:1015B000284600F077FA08B15046C6E7B8F1000FA8
:1015C00009D0A169E5626560A1EB0800A061E0684F
:1015D00040F01000E06047B16168A069E562491B16
:1015E00008446560A0615846AFE73046ADE70000AB
:1015F00010B542485421FEF7D7FF41485421FEF769
:10160000D3FF40485421FEF7CFFF3F493B483C4AB7
:101610003F4B08603D490A603A491960531C036515
:10162000481C1065012008653B48344A39A17844BC
:1016300000F0B2FA20B9384878440A3800F053FB79
:1016400037482F4A35A1784400F0A6FA20B934482B
:1016500078440A3800F047FB32482A4A2FA17844E0
:1016600000F09AFA20B92F4878440A3800F03BFB82
:1016700040232248DC000021224600F0E5F920B199
:1016800025487844543800F02EFB1D48224640235C
:10169000002100F0D9F920B121487844543800F0F5
:1016A00022FB184822461023002100F0CDF9002823
:1016B00006D01C487844BDE81040563800F013BBF3
:1016C00010BD104870B5006D20F001040B4800F00B
:1016D000DBFA0B4800F0D8FA0A4800F0D5FA09E026
:1016E000206D20F00105204600F0CEFA204600F0E3
:1016F000D2F82C46002CF3D170BD00003800002435
:101700008C000024E00000240000002404000024D9
:10171000080000247200000049C5000077000000A6
:1017200035C5000021C500002DE9F04116460C46E4
:10173000054600F075F8036893F80101012807D009
:10174000FF2C12D8185D80B101202C70BDE8F0810B
:10175000D3F807013246214603F20713C71828467B
:10176000BC46BDE8F041002360474FF0FF30EDE795
:101770000EB5CDE9000100F0B1FB029069460120F1
:10178000ABBE0EBD08B5694600900220ABBE08BDD9
:101790001FB58DE8070069460520ABBE04B010BD3B
:1017A0001FB58DE80F0069460620ABBEF6E708B509
:1017B000694600900920ABBE08BD1CB5CDE900010B
:1017C00069460A20ABBE1CBD704708B5694600904B
:1017D0000C20ABBE08BD754600F08CFAAE46050085
:1017E0006946534620F00700854618B020B5FEF73D
:1017F00027FEBDE820404FF000064FF000074FF0F5
:1018000000084FF0000BAC46ACE8C009ACE8C009DA
:10181000ACE8C009ACE8C00921F007018D4670476B
:1018200010B500F005F8001D10BD00BF99C2000002
:10183000004870475401002470B5064600F060FA75
:10184000056806F10B0020F00704B4429CBF00209D
:1018500070BD2B466A68BAB11068A04210D304F17B
:10186000080188423CBF5068586007D3516810197E
:1018700041601168091B016058601460101D70BD43
:1018800013465268002AE7D12146284600F040FA64
:101890000028DED170BD70B50446051F00F030FA97
:1018A0000068002C14BF446870BD002C18BFAC4207
:1018B0003CBF20466468F8D301680A18AA4218BFE2
:1018C000456003D12A680546114401602868411922
:1018D000A1421CBF6C6070BD6168696021680844EA
:1018E000286070BD2DE9F0411F46044603260168BB
:1018F000072A01F4006004DB08B116A505E016A56F
:1019000003E008B115A500E015A521F01000206046
:10191000A069C01EA0610FB1401EA0612046FEF765
:101920006DFE4FB1D4E9012138469047206A401C32
:101930002062C01C206206E0206AFAE7D4E9012197
:1019400015F8010B9047761EF8D22046FEF76CFE84
:10195000BDE8F0814E414E006E616E00494E46007A
:10196000696E66002DE9F047814616468AB0354813
:1019700078440DC88DE80D0032487844801C03ACD3
:101980000DC884E80D0041F69B300844372190FBD8
:10199000F1F290FBF1F5A5F1800501FB12041B3C6F
:1019A00002D56442012000E00020DFF898A08046C4
:1019B0000027FA44AAF1BE0A0EE0E0070AD0324638
:1019C000684607EB470101230AEB81010BF0FFFE9C
:1019D0008DE8070064107F1C002CEED1194F7F4466
:1019E000AE3F19E0E80715D007EB04100DF1180A17
:1019F00090E80E008AE80E00C068F04201D1981904
:101A000008903246012306A903A80BF0E0FE03ABC1
:101A100083E807006D10641C002DE3D14FF0010333
:101A200032466946B8F1000F03A802D00BF0BAFEA7
:101A300001E00BF0CCFEC9E90001C9F808200AB0AA
:101A4000BDE8F08790C2000070B5C468A50713D048
:101A5000650211D4B2F5807F09D0B2F5007F06D0BF
:101A6000B2F5806F08D1012300F1240106E05D1E6C
:101A70006FF07F46B54201D3012070BD0161C361A3
:101A8000416024F470611143C160002070BD00000A
:101A9000C16821F4001141F08001C1600021816022
:101AA000016070472DE9F74F15460C464FF0FF3B9C
:101AB0003848D768D2F814A0074209D05046A9691F
:101AC000FFF77BFE002819DB3248C0430740EF6078
:101AD0004FF000496FF000484C4501D3464600E006
:101AE000264600993B4650463246FFF751FEA9690B
:101AF00020F00042B21A1144A96128B12846FFF72C
:101B0000C7FF5846BDE8FE8FA41BE5D10020F9E7CA
:101B100070B504460569C06A6168884200D8084605
:101B2000E16821F42011E160C90312D5A84208D070
:101B30002246411B2846FFF7B5FF10B14FF0FF309A
:101B400070BD0020E562C4E90150E06820F48030F7
:101B5000E060002070BD10B50446C06820F0200091
:101B6000E060A16AA06988420DD02046FFF7D0FF4F
:101B7000E06820F4405040F01000E060A06AA061EE
:101B80002069E062606044F24001E0688843E06000
:101B900010BD0000100002002DE9F0410C46164671
:101BA000070047D0104600F06FF82078611C6128CC
:101BB0000AD0722802D077283CD102E00125002407
:101BC00005E00225042402E0082448F2020511F889
:101BD000010B2B2806D0622809D011F8010C7428BB
:101BE0000AD00BE045F0030544F00204EFE745F0AE
:101BF000040544F00104EAE744F0100438462146A5
:101C0000FFF7B6FD411C15D00021316171604FF422
:101C10000071F560F1617061200704D53046022241
:101C2000002100F0BFF8306D40F001003065304613
:101C3000BDE8F0810020FBE72DE9F0410D460646A6
:101C4000104C206DC10704D0410804D020F00104DD
:101C5000F7E722460EE05420FFF7EEFD07000ED016
:101C6000206D47F001010843542120653846FEF7F6
:101C70009BFC3A4629463046BDE8F0418CE70020FF
:101C8000D6E70000380000242DE9F04704464FF065
:101C9000FF380026C568D4E90497A80718D0204665
:101CA000FFF736FF3846FFF76DFD002800DA46469D
:101CB000280502D54846FFF7EEFD4C212046FEF7E9
:101CC00073FC206D20F0010020653046BDE8F087F0
:101CD0004046FBE710B50446AFF300802046BDE860
:101CE0001040FEF796BB10B500F0DEF8BDE81040DE
:101CF00000F0D4B800487047340100247047000059
:101D0000004870473C010024704770477047704797
:101D100038B504460A4600206946AFF30080002823
:101D200008BF38BD02460099204600F03DF9012069
:101D300038BD012000F08CB9F8B5AFF3008005463E
:101D400000200C460C2000BF0646A819A0420DD961
:101D5000324669460020AFF30080070008BF00F05C
:101D600077F90098A04218BF0546C419FFF7C8FFCD
:101D700005600746F01D20F007004619284600F0D0
:101D80000AF8B44208BFF8BDA21B31463868BDE866
:101D9000F84000F009B900210160416070470C2053
:101DA000704700002DE9F041044616460D4647698C
:101DB000007B80072ED03846FFF7F9FC50BB3EB3BE
:101DC000012E02D0022E25D104E0204600F006F9B3
:101DD00005441DE03846FFF7F8FCE168002841F0B3
:101DE0001001E16005DA2046FFF752FE0120BDE850
:101DF000F081C9030BD56268E16A914200D81146AF
:101E0000A26911442269891A814200DD084605440D
:101E1000002D01DA0220EAE7E16A6068E2688142A7
:101E200006D29103E06203D522F4003141F01002A2
:101E3000A6690027AE4213DCE16A814201D90B4654
:101E400000E0034603EB060C2369ACEB030CAC4546
:101E500006DD814201D98C4600E084469C4505D1CF
:101E6000A760276042F02000A5620DE0AD1BE66987
:101E7000AE1B8142A66000D90846C01A281A20600D
:101E80005819606022F0200003490840E0600020FB
:101E900084F84870ABE70000BFCFD7FF002801D01F
:101EA00000F07CB87047000010B5014602A000F0B9
:101EB000B6F8012010BD0000534947525452454422
:101EC0003A2052656469726563743A2063616E27D3
:101ED00074206F70656E3A200000000010B5431C3E
:101EE00002E010F8011B71B18107FAD14FF0013205
:101EF00002C88C1A8C4314EAC211F9D0C01A0A061F
:101F000003D0C01E10BDC01A10BD0A0401D0801E2F
:101F100010BD0902FCD0401E10BD000000000000F2
:101F200030B44FF0013C50F8042BCCFA52F451F885
:101F3000043BD51A20D1FCB950F8042BCCFA52F44A
:101F400051F8043BD51A17D1B4B950F8042BCCFA88
:101F500052F451F8043BD51A0ED16CB950F8042B49
:101F6000CCFA52F451F8043BD51A05D1002CDAD042
:101F700030BC4FF00000704729BAB1FA81F111F07E
:101F80001801D1F120008440F2D1CA40CB4012F0B8
:101F9000FF0213F0FF0330BCD01A7047014918202C
:101FA000ABBEFEE726000200034640688C460028D0
:101FB00018BF88423CBF03464068F8D318681844ED
:101FC000884207D00CF1030020F00700001D411AE1
:101FD000521A0146081D0A60FFF75DBC10B50146A4
:101FE000C268900703D0900607D5886A0AE000F01F
:101FF0003DF801210160881E10BD8B6948681844B6
:102000000B69C01A91F848301BB191F84910401A79
:1020100010BD1103FCD50028FADD401E10BD70B5BF
:1020200005460C460A2000E06D1C00F018F835B19A
:1020300028780028F8D102E0641C00F010F814B1F0
:1020400020780028F8D1BDE870400A2000F007B8D9
:1020500010B500F00FF8BDE81040FFF71FBF08B53E
:1020600069468DF800000320ABBE08BD00487047EC
:102070003401002410B5012805D0002103A0FFF78A
:10208000CEFF012010BD09A1F8E7000053494752D7
:10209000544D454D3A204F7574206F662068656138
:1020A00070206D656D6F7279000000003A20486500
:1020B0006170206D656D6F727920636F72727570DB
:1020C00074656400000000002DE9F04383B040F225
:1020D0002C054FF01009C2F200451C4616460F466B
:1020E0008DF8020049EA10208DF80100002001213E
:1020F00001232A464FF000088DF800800AF014FDF5
:102100006A460620032101230AF00EFD49EA172042
:102110008DF804006A1C0020012101238DF8038042
:102120008DF805700AF000FD0DF103020620032171
:1021300001230AF0F9FC49EA16208DF80700AA1CD1
:102140000020012101238DF806808DF808600AF037
:10215000EBFC0DF106020620032101230AF0E4FC4A
:1021600049EA14208DF80A00EA1C0020012101230D
:102170008DF809808DF80B400AF0D6FC0DF10902AC
:102180000620032101230AF0CFFC03B0BDE8F08351
:10219000F0B581B02DED028B82B000EE100A40F256
:1021A0002C049FED358BC2F200441D46B8EE400B67
:1021B00016460F4601210123224620EE080BBCEEF5
:1021C000C00B10EE100A00BA019000200AF0ACFC1F
:1021D00001AA0420042101230AF0A6FC00EE107AD3
:1021E000621C01210123B8EE400B20EE080BBCEE6F
:1021F000C00B10EE100A00BA019000200AF094FC07
:1022000001AA0420042101230AF08EFC00EE106ACA
:10221000A21C01210123B8EE400B20EE080BBCEEFE
:10222000C00B10EE100A00BA019000200AF07CFCEE
:1022300001AA0420042101230AF076FC00EE105AC2
:10224000E21C01210123B8EE400B20EE080BBCEE8E
:10225000C00B10EE100A00BA019000200AF064FCD6
:1022600001AA0420042101230AF05EFC02B0BDECA7
:10227000028B01B0F0BD00BF95D626E80B2E2140A1
:102280002DE9F0412DED028B80B240F29E1400EE5C
:10229000100AC2F200449FED388B40F22C0598469C
:1022A000B8EE400BC2F2004517460E46012100234E
:1022B00020EE080B2A46BCEEC00B10EE100A40BA06
:1022C000208000200AF030FC052002210023224655
:1022D0000AF02AFCB0B26A1C00EE100A01210023A9
:1022E000B8EE400B20EE080BBCEEC00B10EE100A4F
:1022F00040BA208000200AF017FC052002210023AC
:1023000022460AF011FCB8B2AA1C00EE100A012104
:102310000023B8EE400B20EE080BBCEEC00B10EE15
:10232000100A40BA208000200AF0FEFB052002219E
:10233000002322460AF0F8FB1FFA88F0EA1C00EEA0
:10234000100A01210023B8EE400B20EE080BBCEE72
:10235000C00B10EE100A40BA208000200AF0E4FB07
:102360000520022100232246BDEC028BBDE8F0418E
:102370000AF0DABB00BF00BF1CD0D2156CC14640CA
:10238000B0B50446006842F2001140F48070C4F217
:102390000201884218D142F20830C4F202000068FB
:1023A00010F4403F18D004F017FE61680546B1F5FF
:1023B000803F05D0B1F5403F2CD0B1F5003F2AD188
:1023C000080CB5FBF0F526E046F20830C5F6020031
:1023D000006810F4403FE6D14FF40020002103F0E4
:1023E0006FFD61680546A1F580224FEAB2420A2AD4
:1023F00011D8DFE802F007070707070755535951BF
:10240000570000BF6FF0010000EA5140B5FBF0F546
:1024100001E000BFAD0803F013FA41F20301884266
:102420000ED8206842F60151C0F231118D42816808
:102430002CBF41F4807121F480718160B0BD00BF78
:102440004BF62140C0F2BE00854205D82068816865
:1024500021F440718160B0BD47F64100C0F27D10AB
:10246000854207D820680122816862F309218160D2
:10247000B0BD00BF20684FF28101C0F2FA218D4249
:10248000816805D8022262F309218160B0BD00BFD6
:1024900041F440718160B0BDED09BCE76D09BAE758
:1024A0002D09B8E72D0AB6E7AD09B4E70000000032
:1024B0000146806B426D12F0500F426D06D0D2067D
:1024C00010D4C06CC26C0846104700BF42F40071C3
:1024D000416501680A681207CA6805D4910709D0E6
:1024E00000F05EBE00F07CBE12F4406FF8D1C96807
:1024F0008904F5D4416D21F480714165416DC904B1
:10250000EED4416D41F00101416500F049BE00008B
:10251000806B416D41F040014165816D41F00401E6
:10252000816500F05DBE0000806B00F049BE0000D8
:102530002DE9F04381B040F65C59C2F2004999F8A8
:10254000000002283AD0012874D140F23608C2F2C5
:102550000048B8F80000C0B140F2240540F66056CB
:102560004DF675440027C2F20045C2F20046C0F69F
:10257000000400BF36F827202868214608F038FDFF
:10258000B8F8000001378742F4D340F228004DF636
:102590007041C2F20040C0F60001006808F028FD5A
:1025A000002089F8000040F66050C2F200404FF46D
:1025B000C871FDF7F9FF01B0BDE8F08340F23608BD
:1025C000C2F20048B8F800004109182918D840F6AE
:1025D000605140F22405C2F200414DF6754401EB12
:1025E0008001A0F548770E1FC2F20045C0F6000436
:1025F00036F8042F2868214608F0FAFC0137F7D393
:1026000040F228004DF67041C2F20040C0F60001D1
:10261000006808F0EDFCB8F8000040F66052C2F225
:102620000042002189F8001002EB80004FF4C871CD
:10263000FDF7BAFF01B0BDE8F08300000000000024
:10264000F0B581B0044600688168C9074AD14FF6E9
:10265000C0778168C7F6FF7707F17F0211420BD080
:10266000606D40F010006065A06D40F00100A06555
:10267000012001B0F0BD00BF8168394041F0010187
:10268000816003F0E5F842F2000246F20836C4F237
:102690000202216802F5807302F54275C5F6020652
:1026A000994208BF2E46914208BF2E4699420546E0
:1026B000306814D110F01F0014D110E08868C007F2
:1026C00004D18868384040F00100886003F0C0F809
:1026D000401B2168032802D30868C007C0D00868DF
:1026E000C007EBD0002001B0F0BD000000000000EA
:1026F00041F6E010C2F2004000F076BD000000009C
:10270000FEE700000000000080B505A008F034FCE2
:1027100041F65820C2F20040BDE8804001F020BEE2
:10272000444D415F49540D0A0000000000000000C4
:1027300041F6D020C2F2004001F012BE00000000BD
:1027400040F20F42D0F800C0C4F20202944511DCFE
:102750006F22C4F20202944522DC3F22C4F202023C
:10276000944539DC1022C4F2020294455AD0282242
:1027700054E000BF40F26F42C4F2020294451BDCF9
:1027800040F23F42C4F2020294452DDC40F2104276
:10279000C4F20202944545D040F228423EE000BF18
:1027A0009F22C4F20202944528DC7022C4F2020285
:1027B000944537D0882231E040F29F42C4F20202B1
:1027C000944523DC40F27042C4F20202944529D0C1
:1027D00040F2884222E000BF4022C4F20202944547
:1027E00020D058221AE000BF40F24042C4F2020258
:1027F000944517D040F2584210E000BFA022C4F226
:10280000020294450ED0B82208E000BF40F2B84260
:10281000C4F20202944505D040F2A042C4F2020282
:10282000944517D10CF0F8024AF6AB23103ACAF6D9
:10283000AA23A2FB03310AA35F2AC1F302115B5C46
:1028400040F2FF312CEA0101C36588BF0431816584
:10285000084670472CF0FF0181650846704700BFAD
:10286000000610160006101670B540F26F44D0F83E
:1028700000C0C4F20204D0F858E0A4451ADC9F2539
:10288000C4F20205AC4533DC5725C4F20205AC4561
:102890005ADC1025C4F20205AC4500F098802825CA
:1028A000C4F20205AC4500F092804025C4F2020556
:1028B0008AE000BF45F22F45C5F60205AC452DDC88
:1028C00040F2B745C4F20205AC454BDC40F270451E
:1028D000C4F20205AC457AD040F28845C4F2020544
:1028E000AC4574D040F2A045C4F202056CE000BFD4
:1028F00040F22745C4F20205AC4543DCA025C4F2F2
:102900000205AC4563D0B825C4F20205AC455ED0E3
:1029100040F21045C4F2020556E000BF45F26B4597
:10292000C5F60205AC453FDC45F23045C5F602056B
:10293000AC454CD045F24445C5F60205AC4546D001
:1029400045F258453EE000BF5825C4F20205AC45AB
:102950003DD07025C4F20205AC4538D08825C4F2BC
:10296000020531E040F2B845C4F20205AC452ED074
:1029700045F20845C5F60205AC4528D045F21C4590
:1029800020E000BF40F22845C4F20205AC451ED04D
:1029900040F24045C4F20205AC4518D040F258451B
:1029A000C4F2020510E000BF45F26C45C5F6020511
:1029B000AC450CD045F29445C5F60205AC4506D0B1
:1029C00045F28045C5F60205AC4540F0D080456E25
:1029D000C66E002E866E6E601CBFD0E91C566E60FF
:1029E000A44515DC9F24C4F20204A4452CDC572422
:1029F000C4F20204A44551DC1024C4F20204A4452C
:102A00007AD02824C4F20204A44575D040246FE093
:102A100045F22F44C5F60204A44529DC40F2B74430
:102A2000C4F20204A44545DC40F27044C4F202043E
:102A3000A44561D040F28844C4F20204A4455BD0AE
:102A400040F2A04454E000BF40F22744C4F2020424
:102A5000A4453FDCA024C4F20204A4454CD0B82411
:102A6000C4F20204A44547D040F2104440E000BF45
:102A700045F26B44C5F60204A44555DC45F23044EA
:102A8000C5F60204A44561D045F24444C5F60204EB
:102A9000A4455BD045F2584454E000BF5824C4F22A
:102AA0000204A44528D07024C4F20204A44523D013
:102AB00088241DE040F2B844C4F20204A4451BD0AF
:102AC00045F20844C5F60204A4453FD045F21C4433
:102AD00038E000BF40F22844C4F20204A4450BD001
:102AE00040F24044C4F20204A44505D040F25844E8
:102AF000C4F20204A4453AD18468C06D00F01F00FE
:102B00003F2505FA00F0CEF80800DCF80000402C64
:102B100020F48020CCF80000CCF8043023D1CCF88D
:102B20000820CCF80C1070BD45F26C44C5F60204C8
:102B3000A4450BD045F28044C5F60204A44505D057
:102B400045F29444C5F60204A44510D1C46D012594
:102B500004F01F04806805FA04F4CEF8044040280D
:102B6000CCF80430DBD0CCF80810CCF80C2070BDC9
:102B70007047000000000000042002F069BD000062
:102B8000082002F065BD0000102002F061BD0000C9
:102B9000EFF3108072B600BFFEE7000000000000F7
:102BA00044F60400C5F60200816841F0020181602C
:102BB0000168890409D4016889045CBF01685FEA7F
:102BC000814102D401688904F2D5704700000000F9
:102BD0007047000000000000704700000000000087
:102BE0007047000000000000704700000000000077
:102BF000704700000000000090F85020012A01D129
:102C00000220704710B582B042F2083400230193CD
:102C1000C4F202040093A4F542720368934227D1E0
:102C20004FF6006ECFF6FF7E54F80E209B681A43D5
:102C300052071DD4D1F800C02268BCF1000F22F465
:102C4000404323D04A681A4322604FF60052CFF621
:102C5000FF72A25854F80E301A43D20726D12268C8
:102C600040F61F739A438968114341EA0C011CE046
:102C7000416D41F0200141650121002280F8502082
:102C800002B0BDE810400846704700BF4FF6005143
:102C90002360CFF6FF71615854F80E201143C90725
:102CA00004D1216840F61F72914321600021E4E7BE
:102CB000F0B581B00022009290F85020012A03D193
:102CC0000221084601B0F0BD0768012380F85030AA
:102CD000BB685B0700F196810C684FF6FF7CB4F18E
:102CE000FF3FC0F20F0C4FEA94630FDD94FAA4F299
:102CF00014EA0C0FB2FA82F208BFA20E012402F00D
:102D00001F0204FA02F2FC692243FA614A681F2694
:102D100003F01F03C2F3012402F01F02964007EBE9
:102D2000840403FA02F2256B25EA06063243226385
:102D3000BA68BB6802F0040203F00803D21840F03E
:102D400096800A6807258E68C2F34063C2F3045276
:102D500007EB830395405C6906FA02F224EA050555
:102D60002A435A6141F20002C5F60042126802F09D
:102D70007042B2F1805F33D14A69FB680E2606EAE1
:102D8000530302FA03F30C69042C39D007F16002F3
:102D90000E6806F0F84652F82450334305F000451B
:102DA0002B4342F824300B694E7E52F82350012EFB
:102DB00025F0004508BF05F1004542F823500A7E82
:102DC0000B693E69013A03F01F03B2FA82F226F45E
:102DD000F0465209D2029A4032433A6147E000BFBE
:102DE000FA684B69FE68D2064FEA560402D404F032
:102DF0000E0201E004F0080293400C69042CC5D1D6
:102E00003A6E0B6802F0F8429B069A4218D13A6E6D
:102E100022F000423A667A6E02F0F8429A4214D0EA
:102E2000BA6E02F0F8429A4218D1BA6E22F000420D
:102E3000BA66FA6E02F0F8429A4214D017E000BF68
:102E40007A6E02F0F8429A42EAD17A6E22F000429B
:102E50007A66BA6E02F0F8429A42E6D0FA6E02F052
:102E6000F8429A4203D1FA6E22F00042FA66BA683A
:102E7000D20779D1D1F800E00023C968D7F8C02083
:102E80000EEA0C04C4F25273A24301F018042CFAA7
:102E900004F603F52D0506EA0E06A94246EA0201EC
:102EA000C7F8C0105DD142F20011C4F202018F4296
:102EB00026D042F20001C4F202018F423CD11F2110
:102EC000C1F2F0418E4540F3C38040F2FF71C2F67B
:102ED00030618E4540F3A98040F60001C2F63061B2
:102EE0008E4500F0478141F20001C3F260218E451A
:102EF00000F036810021C4F221318E451DD045E11C
:102F00001F21C1F2F0418E4500F388800721C0F6F1
:102F100090418E4500F3AA800221C0F230418E45D7
:102F200000F0A1800421C0F660018E4540F02E81A2
:102F30004023C1F6201300E0002393FAA3F143F6E7
:102F4000C132B1FA81F1C0F20A0213424FF001021C
:102F500008BF990E01F01F0102FA01F1FA6911434D
:102F6000F961BEF1FF3F01DD002150E042F20001B6
:102F700046F2083CC4F20201C5F6020C01F580726B
:102F800001F542739742624608BF1A468F4242F2E9
:102F9000001408BF1A4647F48073C4F20204A34227
:102FA000136827D18A68D1F808111143C90729D1BC
:102FB000002103F0E074CCF684318E4508BF13F491
:102FC000000163D00021CCF252718E4540F0A08008
:102FD0000021B1EB146F40F09B80ACF542718F4241
:102FE000C2D1DCF8001021F0E071214341F0807182
:102FF000A5E000BF4FF60051CFF6FF715CF801105D
:10300000C907D5D0416D41F0200141650121002261
:1030100080F85020084601B0F0BD00BF40F2FF71BB
:10302000C2F630618E4500F38F802021C1F2F0415D
:103030008E4500F0A58040F20041C2F600218E4589
:1030400040F0A48040F60003C2F6306375E700BF8D
:103050000721C0F690418E4508DC0221C0F23041C4
:103060008E457FF45FAF012367E700BF0821C0F6FC
:1030700090418E457AD01021C1F2C0018E4540F0BA
:10308000858040F20013C2F2801356E7ACF542711E
:103090008F427FF469AFDCF8001042F6635221F0F2
:1030A000E071C0F23E52214341F40001CCF800101F
:1030B00040F21C01C2F2004109688909A1FB021219
:1030C0009109022202EB41010091009900293FF48D
:1030D0004BAF009901390091009900293FF444AFAA
:1030E000009901390091009900293FF43DAF009902
:1030F00001390091009900293FF436AF0099013958
:103100000091009900294FF00001E2D17FE700BF54
:10311000ACF542718F424FF000017FF478AF00228E
:10312000CCF6B872964508BF13F480027FF46FAFF7
:10313000DCF8001021F0E071214341F48001CCF86B
:103140000010002163E700BF40F60001C2F63061C5
:103150008E450FD041F20001C3F260218E4515D19A
:1031600042F20003C3F29063E7E600BF8023C1F69A
:103170005053E2E641F20003C3F26023DDE600BFF4
:1031800040F20023C2F2B053D7E600BF0021002373
:10319000C4F684318E4504BF0023C4F6B873CCE670
:1031A00042F200010068C4F20201884218BF704771
:1031B00040F65C500221C2F20040017070470000EE
:1031C00042F200010068C4F20201884218BF704751
:1031D00040F65C500121C2F20040017070470000CF
:1031E00070470000000000002DE9F04F81B0044658
:1031F00042F2000046F20831C4F20200C5F60201B4
:10320000276800F5807A00F54279574508BF49469E
:10321000874208BF49463E687D68B207D1F8008002
:103220000FD515F002010CD0606DC00603D4606D9F
:1032300040F4006060652046FFF7CAFC2768022161
:103240003960710708F01F0B02D515F0040104D195
:10325000310755D515F0080152D0214651F8542FA9
:10326000D20603D40A6842F400720A60FA6812F4C3
:10327000406F3FD1BBFA8BF2ABF10503B3FA83F396
:1032800052095B09384642EA030CABF10903B3FA71
:1032900083F342F20002C4F20202574508BF10460F
:1032A0005B0943EA0C02D207024618BF3A46B8420D
:1032B00008BF0246D26892041CD43A68120719D596
:1032C000BA6852070CD47A6822F00C027A60086857
:1032D00020F4807008600868C00407D50AE000BFC9
:1032E000606D04F1580140F010006065086840F01E
:1032F000010008602046FFF753FF27680C21396062
:10330000B10602D515F0200104D171062CD515F0B7
:10331000400129D0214651F8542FD20603D40A681F
:1033200042F400520A6042F200023846C4F202023D
:10333000574508BF104608F01E030246062B08BF7B
:103340003A46BBF1000F08BF3A46B84208BF0246F2
:10335000F86C10F4C07FFB68D26879D02046FFF784
:103360003BFC27686020386030060CD515F08000E3
:1033700009D0606D40F480306065204600F0C8F9E7
:10338000276880203860F0050DD515F480700AD0CC
:10339000606D40F4003060652046FFF725FC27682B
:1033A0004FF480703860B0050DD515F400700AD068
:1033B000606D40F4802060652046FFF719FC2768A7
:1033C0004FF400703860F00627D515F0100024D0B7
:1033D000206BA0B1BBF1000F5CD046F2083042F286
:1033E0000001C5F60200574508BF4846C4F2020175
:1033F0008F4208BF4846006810F4404F0BD0606D04
:1034000040F480606065A06D40F00200A065204639
:10341000FFF7E6FE276810203860700514D515F414
:10342000806011D0606D40F480406065A06D40F018
:103430000800A0654FF480603860204601B0BDE808
:10344000F04FFFF7CDBB00BF01B0BDE8F08F00BF6C
:10345000900106D503F4406002F40053C0187FF4D5
:103460007DAF386840067FF579AF12F400107FF425
:1034700075AFB868000711D4786820F060007860F4
:10348000086820F4805008600868C0053FF566AF02
:103490000AE000BFF8688007B1D1BCE7606D04F1B5
:1034A000580140F010006065086840F001000860B5
:1034B00054E700000000000070B582B00446002808
:1034C0004FF0000001902DD0606D30B9204600F023
:1034D00023F90020A06584F85000206881688900E5
:1034E0004FF6C071C5F6FF7102D582680A4082604E
:1034F0008268D20031D4826801F18051114042F6D5
:10350000635241F08051816040F21C01C0F23E5292
:10351000C2F2004109688909A1FB0212012101EBF5
:10352000921105E00126304602B070BD01990139C3
:103530000191019989B1019901390191019961B113
:10354000019901390191019900291FBF01990139A0
:103550000191019918BF0029E8D18168C90009D4F7
:10356000616D012641F010016165A16D41F001011D
:10357000A16500E000268168626D02F0100201F092
:1035800004018918616D40F0918021F4817102314C
:1035900061658168C90728D142F2001240F4807148
:1035A000C4F20202914242F20001C4F2020140F070
:1035B000A5808A68D1F808311A43D20715D101F5E0
:1035C000807201F5427346F2080C9042C5F6020C77
:1035D0001A4618BF0CF54072884208BF1A46606848
:1035E000116821F47C110843106002F029F941F2BE
:1035F000030100228842A068A0F1100188BF0122C7
:10360000B1FA81F1237F49091140226B617D154692
:1036100016BF4D034A031C20012B45EA034141EA32
:10362000020141EA000106D1206A0022CFF6FE72B3
:1036300002EB40400143606A20B100F47870A26A56
:103640001043014320684CF20303CFF6F073C268C5
:103650001A401143C1608168826801F0040102F0E0
:103660000802891836D1217D44F20305E26AC36855
:1036700042EA813123EA05021143C16094F838100F
:10368000012901691AD14FF61E020125CFF6004229
:10369000CFF6FF751140D4E90F231943636C05EB96
:1036A00002421143A26C1943114309E041F010009A
:1036B00001266065304602B070BD00BF21F00101F7
:1036C00001610169626B21F0704111430161204683
:1036D000FEF756FE2068E1680129026B22F00F0117
:1036E00002D1A269013A114301630121606D61F3C6
:1036F00001006065304602B070BD00BF46F20802AE
:10370000C5F602021268D2073FF459AF6DE7000018
:10371000704700000000000070B5B8B0044602A871
:103720000830B82100253395CDE93655CDE934551B
:10373000FCF73AFF42F200012068C4F2020188421D
:1037400002D038B070BD00BF4FF4002002901920A5
:103750000C90C8200D9002200E900A200395CDE910
:103760000F004FF480302B9002A8129502F080FDDC
:1037700008B1FFF70DFA44F2D8400026C5F6020062
:10378000016841F020010160016801F02001019110
:103790000199816841F001018160806833A900F0DE
:1037A00001000190019840203390032034900020C4
:1037B000C5F60200359601F057FF41F65825102056
:1037C000C2F20045C4F2020028600920C5E90106E2
:1037D0004FF4806028614FF4805068614FF480405E
:1037E000A8614FF48070EE60C5E9070628466E6256
:1037F00001F0C2F908B1FFF7CBF912200221012232
:10380000E564AC6302F020F9122002F009F938B047
:1038100070BD0000000000002DE9F04142F20016EA
:1038200046F20834C4F20206076806F50275C5F6CA
:103830000204A6F58073B74208BF2C469F4208BF1A
:103840002C462368BF687F0703D490F85070012F7F
:1038500002D10220BDE8F08103F01F070123092FE8
:1038600080F850305AD8BB4040F221252B4255D029
:103870000D4690460446FEF7E3FE28B1002084F88A
:1038800050000120BDE8F0812168606D40F60173B1
:103890002246984300F5807060650FB1B14203D0B5
:1038A000506D20F480105065506D42F2B147C00455
:1038B0004FF0000044BF906D20F0060042F2295600
:1038C000C0F600079065C0F60006D06C00231446D1
:1038D000C0E90F7642F21157D66AC0F60007C764F6
:1038E0001C270F6082F850302A464B6843F01003C3
:1038F0004B60CB6823F003033343CB604031434636
:1039000001F06AFC21684FF6C073C7F6FF738A683E
:103910001A4004328A60BDE8F08100BF002180F8BF
:1039200050100120BDE8F0812DE9F0410446002847
:103930004FF0010018BF002902D1BDE8F08100BF9F
:10394000607901284FF0020008BFBDE8F0810B68E4
:103950000127042B677120711ED10F46154601F017
:1039600077FF2368A846002D0546586B24D0B0F198
:10397000FF3F06DD3946B86958643AE0586B0028C5
:10398000F8D501F065FF401B23680228F6D3586B79
:10399000B0F1FF3FF2DC21E023680869012843D140
:1039A00002F010021F27986B97404E69B84306FA41
:1039B00002F73843986339E048F20006C2F2000685
:1039C00001E000BF586B304210D001F041FF401BB6
:1039D00023680228F6D3586B3042F3D0206940F0B8
:1039E0000800206103202071BDE8F0813946B869E4
:1039F000186408F0100040F2FF379E6C8740D1E950
:103A0000075C26EA070705FA00F637439F64FF279D
:103A1000DE6C8740424626EA07070CFA00F038437E
:103A2000D86408690128BBD002F010020727D86BC0
:103A3000CE689740012E20EA070C4FF0000003D01B
:103A4000022E03D1012605E0002603E08E68B6FAB7
:103A500086F676090D688F682E433743496897408C
:103A600047EA0C07DF634FF480471E68974026EA59
:103A700007071F6040F6FE771E68974026EA070793
:103A8000914039431960C02191401A6822EA01012E
:103A90001960012121716071BDE8F0810000000012
:103AA00090B1017941B910B500214171044600F08F
:103AB0000FF82046BDE8104002210171002101618C
:103AC0000122027108467047012070470000000083
:103AD00070B586B047F2004104460068C4F20001A8
:103AE00000268842CDE9046603960296019601D02D
:103AF00006B070BD44F2E040C5F60200816841F0B6
:103B000000518160816801F00051009100990168C5
:103B100041F001010160006801A900F0010000907E
:103B20000098102001900320CDE902060020C5F680
:103B3000020001F099FD41F6D0252820C2F200458F
:103B4000C4F202002860432068604020C5E90206F4
:103B50004FF4806028614FF4805068614FF48040DA
:103B6000A8614FF480706E62C5E90706284601F02F
:103B700003F808B1FFF70CF8A560AC6306B070BDA0
:103B80002DE9F041044601F063FE1CB3054694F8AC
:103B90003500022822D140F20F472668C4F20207FE
:103BA00040F26F48BE426FF00E00C4F202081DDC06
:103BB0006F21C4F202018E422ADC3F21C4F20201CD
:103BC0008E4241DC1021C4F202018E4263D02821D2
:103BD0005CE000BF0120BDE8F08100BF802060658F
:103BE0000120002184F83410BDE8F08146451BDC3B
:103BF00040F23F41C4F202018E422DDC40F21041FE
:103C0000C4F202018E4246D040F228413EE000BF9D
:103C10009F21C4F202018E4228DC7021C4F202010D
:103C20008E4238D0882131E040F29F41C4F2020137
:103C30008E4223DC40F27041C4F202018E422AD04F
:103C400040F2884122E000BF4021C4F202018E42CE
:103C500021D058211AE000BF40F24041C4F20201D5
:103C60008E4218D040F2584110E000BFA021C4F2AB
:103C700002018E420FD0B82108E000BF40F2B841E7
:103C8000C4F202018E4206D040F2A041C4F2020109
:103C90008E42314607D13146306820F01E0041F88F
:103CA000140B6FF080000A68464500EA02000860C5
:103CB0001ADC9F20C4F20200864233DC5720C4F293
:103CC000020086425ADC1020C4F20200864200F054
:103CD00097802820C4F20200864200F091804020A4
:103CE000C4F202008AE000BF45F22F40C5F6020090
:103CF00086422DDC40F2B740C4F2020086424BDC23
:103D000040F27040C4F20200864279D040F288400E
:103D1000C4F20200864273D040F2A040C4F2020016
:103D20006CE000BF40F22740C4F20200864243DC50
:103D3000A020C4F20200864262D0B820C4F2020081
:103D400086425DD040F21040C4F2020056E000BF4F
:103D500045F26B40C5F6020086423FDC45F230403A
:103D6000C5F6020086424BD045F24440C5F602003B
:103D7000864245D045F258403EE000BF5820C4F28C
:103D8000020086423CD07020C4F20200864237D046
:103D90008820C4F2020031E040F2B840C4F20200D0
:103DA00086422DD045F20840C5F60200864227D053
:103DB00045F21C4020E000BF40F22840C4F202005F
:103DC00086421DD040F24040C4F20200864217D025
:103DD00040F25840C4F2020010E000BF45F26C40CF
:103DE000C5F6020086420BD045F29440C5F60200AB
:103DF000864205D045F28040C5F60200864204D1D5
:103E0000206E016821F480710160306820F00100AB
:103E1000306000BF3068C00710D001F019FD401BB2
:103E20000628F7D320206065032084F835000120A0
:103E3000002184F83410BDE8F08100BF206808211B
:103E4000B8424FF03F0211DC6F23C4F202039842E4
:103E50001EDC3F23C4F20203984235DC1023C4F277
:103E60000203984257D0282350E000BF40451BDC96
:103E700040F23F43C4F2020398422DDC40F210436B
:103E8000C4F20203984246D040F228433EE000BF0D
:103E90009F23C4F20203984228DC7023C4F2020379
:103EA000984238D0882331E040F29F43C4F20203A5
:103EB000984223DC40F27043C4F2020398422AD0B5
:103EC00040F2884322E000BF4023C4F2020398423C
:103ED00021D058231AE000BF40F24043C4F202034D
:103EE000984218D040F2584310E000BFA023C4F21B
:103EF000020398420FD0B82308E000BF40F2A0436D
:103F0000C4F20203984206D040F2B843C4F202035E
:103F1000984240F0C580D4E9163707F01F074045A6
:103F200002FA07F25A5019DC9F21C4F202018842BA
:103F300032DC5721C4F20201884259DC1021C4F25C
:103F40000201884200F096802821C4F202018842D2
:103F500000F090804021C4F2020189E045F22F4137
:103F6000C5F6020188422DDC40F2B741C4F20201DD
:103F700088424BDC40F27041C4F20201884279D0A1
:103F800040F28841C4F20201884273D040F2A0415D
:103F9000C4F202016CE000BF40F22741C4F202010A
:103FA000884243DCA021C4F20201884262D0B821D9
:103FB000C4F2020188425DD040F21041C4F2020115
:103FC00056E000BF45F26B41C5F6020188423FDC76
:103FD00045F23041C5F6020188424BD045F24441DA
:103FE000C5F60201884245D045F258413EE000BF87
:103FF0005821C4F2020188423CD07021C4F202016F
:10400000884237D08821C4F2020131E040F2B84141
:10401000C4F2020188422DD045F20841C5F60201E2
:10402000884227D045F21C4120E000BF40F22841E1
:10403000C4F2020188421DD040F24041C4F20201A4
:10404000884217D040F25841C4F2020110E000BF8C
:1040500045F26C41C5F6020188420BD045F294410D
:10406000C5F60201884205D045F28041C5F602013D
:1040700088420BD1616EA26EE06E4A6030B1016879
:1040800021F480710160D4E91C014160012084F8B1
:1040900035000020002184F83410BDE8F08100BF15
:1040A0000421012237E70000F0B190F83510022911
:1040B00018D180B540F20F420168C4F20202914269
:1040C00014DC6F23C4F20203994225DC3F23C4F2BF
:1040D000020399423CDC1023C4F2020399425DD0F2
:1040E000282357E0802141650120704740F26F434B
:1040F000C4F2020399421BDC40F23F43C4F20203C4
:1041000099422DDC40F21043C4F20203994245D09B
:1041100040F228433EE000BF9F23C4F202039942CD
:1041200028DC7023C4F20203994237D0882331E09F
:1041300040F29F43C4F20203994223DC40F27043F1
:10414000C4F20203994229D040F2884322E000BF22
:104150004023C4F20203994220D058231AE000BF42
:1041600040F24043C4F20203994217D040F2584350
:1041700010E000BFA023C4F2020399420ED0B8237E
:1041800008E000BF40F2B843C4F20203994205D0F0
:1041900040F2A043C4F20203994275D191424FF01C
:1041A000040280F8352011DC6F20C4F20200814245
:1041B00022DC3F20C4F20200814239DC1020C4F22C
:1041C0000200814259D0282054E000BF40F26F40E5
:1041D000C4F2020081421BDC40F23F40C4F2020004
:1041E00081422DDC40F21040C4F20200814244D0F2
:1041F00040F228403EE000BF9F20C4F2020081420E
:1042000028DC7020C4F20200814236D0882031E0E0
:1042100040F29F40C4F20200814223DC40F2704031
:10422000C4F20200814228D040F2884022E000BF60
:104230004020C4F2020081421FD058201AE000BF83
:1042400040F24040C4F20200814216D040F2584091
:1042500010E000BFA020C4F2020081420DD0B820BF
:1042600008E000BF40F2B840C4F20200814204D02E
:1042700040F2A040C4F202008142086820F0010030
:104280000860002080BD00BF0A6822F00E020A60AC
:1042900045F25742C5F6020291420A6822F0010235
:1042A0000A600FDC45F22F42C5F60202914219DC8A
:1042B00045F20842C5F60202914229D045F21C425D
:1042C00022E000BF45F27F42C5F60202914213DCB4
:1042D00045F25842C5F60202914219D045F26C42AD
:1042E00012E000BF45F23042C5F6020291420FD003
:1042F00045F2444208E000BF45F29442C5F602028E
:10430000914205D045F28042C5F6020291421AD18F
:10431000D0E9181CD0E916E30A6822F480720A601A
:1043200003F01F01012202FA01F1CEF80410816EA0
:10433000CCF80410C16E31B10A6822F480720A60B0
:10434000D0E91C124A60012180F83510016D00226D
:10435000002980F8342094D08847002080BD0000D8
:104360002DE9F04782B00021019140F21C0148F292
:10437000B513C2F20041C1F64E33856D40F26F496C
:104380000A680168C4F202092E68A2FB03284945A5
:104390002A6815DC9F22C4F2020291422CDC5722CB
:1043A000C4F20202914251DC1022C4F20202914294
:1043B0007BD02822C4F20202914276D040226FE0E4
:1043C00045F22F43C5F60203994229DC40F2B74378
:1043D000C4F20203994245DC40F27042C4F2020288
:1043E000914262D040F28842C4F2020291425CD013
:1043F00040F2A04254E000BF40F22742C4F2020261
:1044000091423FDCA022C4F2020291424DD0B82278
:10441000C4F20202914248D040F2104240E000BF94
:1044200045F26B43C5F60203994275DC45F2304311
:10443000C5F60203994200F0828045F24443C5F676
:10444000020399427BD045F2584373E05822C4F2EC
:104450000202914229D07022C4F20202914224D079
:1044600088221DE040F2B843C4F2020399421CD0F6
:1044700045F20843C5F60203994260D045F21C4359
:1044800058E000BF40F22842C4F2020291420CD030
:1044900040F24042C4F20202914206D040F2584239
:1044A000C4F20202914240F05383C26D082302F02D
:1044B0001F0240F20F4A9340C4F2020A334200F056
:1044C000DE8051454FF0040412DC6F27C4F202076E
:1044D000B9426DDC3F27C4F20207B94200F39C8069
:1044E0001027C4F20207B94200F0BD802827B5E0CA
:1044F000494569DC40F23F47C4F20207B94200F384
:10450000938040F21047C4F20207B94200F0AB803A
:1045100040F22847A2E000BF45F26C43C5F6020313
:1045200099420CD045F28043C5F60203994206D069
:1045300045F29443C5F60203994240F009830B68A3
:10454000C76D07F01F070426BE40164218BF13F0C0
:10455000040423D10226BE40164218BF13F0020401
:1045600042D1FA40120740F1F38213F0080200F042
:10457000EF820A6822F00E020A60012101FA07F2B6
:104580006A60416580F83510C16C00294FF0000267
:1045900080F8342040F0D882DAE200BF1A046E605E
:1045A00034D49A0636D40A6822F004020A6031E054
:1045B0009F27C4F20207B94240DC7027C4F2020709
:1045C000B94250D0882749E040F29F47C4F2020721
:1045D000B9423BDC40F27047C4F20207B94242D014
:1045E00040F288473AE000BF1A046E6000F1B482DE
:1045F0009A0600F1B5820A6822F00A020A600121D7
:1046000080F83510002180F83410A9E2D90301D4D4
:10461000816C98E2016C96E24027C4F20207B9422D
:1046200021D058271AE000BF40F24047C4F20207E9
:10463000B94218D040F2584710E000BFA027C4F29A
:104640000207B9420FD0B82708E000BF40F2A047E8
:10465000C4F20207B94206D040F2B847C4F20207DA
:10466000B94218BF08240F68274208D00F6827F006
:1046700004070F60AB60436D43F001034365012302
:10468000934033426FD0514510DC6F27C4F20207CC
:10469000B9421DDC3F27C4F20207B94234DC1027BF
:1046A000C4F20207B94256D028274FE049451BDC27
:1046B00040F23F47C4F20207B9422DDC40F21047F6
:1046C000C4F20207B94246D040F228473EE000BF9C
:1046D0009F27C4F20207B94228DC7027C4F2020700
:1046E000B94238D0882731E040F29F47C4F2020730
:1046F000B94223DC40F27047C4F20207B9422AD023
:1047000040F2884722E000BF4027C4F20207B942C6
:1047100021D058271AE000BF40F24047C4F20207F8
:10472000B94218D040F2584710E000BFA027C4F2A9
:104730000207B9420FD0B82708E000BF40F2A047F7
:10474000C4F20207B94206D040F2B847C4F20207E9
:10475000B94240F007824F693F0604D5AB60436D14
:1047600043F0020343650423934033426FD0514525
:1047700010DC6F27C4F20207B9421DDC3F27C4F2E8
:104780000207B94234DC1027C4F20207B94256D0FE
:1047900028274FE049451BDC40F23F47C4F202079F
:1047A000B9422DDC40F21047C4F20207B94246D0AC
:1047B00040F228473EE000BF9F27C4F20207B942FB
:1047C00028DC7027C4F20207B94238D0882731E0CC
:1047D00040F29F47C4F20207B94223DC40F270471F
:1047E000C4F20207B9422AD040F2884722E000BF53
:1047F0004027C4F20207B94221D058271AE000BF6F
:1048000040F24047C4F20207B94218D040F258477C
:1048100010E000BFA027C4F20207B9420FD0B827AA
:1048200008E000BF40F2A047C4F20207B94206D038
:1048300040F2B847C4F20207B94240F09B810F68CA
:10484000BF0704D5AB60436D43F0040343651023F9
:1048500003FA02F2324200F0828051454FF0080321
:1048600010DC6F27C4F20207B9421DDC3F27C4F2F7
:104870000207B94234DC1027C4F20207B94256D00D
:1048800028274FE049451BDC40F23F47C4F20207AE
:10489000B9422DDC40F21047C4F20207B94246D0BB
:1048A00040F228473EE000BF9F27C4F20207B9420A
:1048B00028DC7027C4F20207B94238D0882731E0DB
:1048C00040F29F47C4F20207B94223DC40F270472E
:1048D000C4F20207B9422AD040F2884722E000BF62
:1048E0004027C4F20207B94221D058271AE000BF7E
:1048F00040F24047C4F20207B94218D040F258478C
:1049000010E000BFA027C4F20207B9420FD0B827B9
:1049100008E000BF40F2A047C4F20207B94206D047
:1049200040F2B847C4F20207B94218BF04230F6827
:104930001F4214D0AA600A6852030A6808D4D2053C
:1049400008D40A6822F008020A60016C21B906E066
:10495000110351D4016C11B1044688472046C16D42
:1049600001F01F02202101FA02F3334200F0AF8070
:1049700001681027514511DC6F26C4F20206B142CE
:104980001EDC3F26C4F20206B14239DC1026C4F216
:104990000206B1425BD0282654E000BF49451BDC2B
:1049A00040F23F46C4F20206B14231DC40F210460A
:1049B000C4F20206B1424AD040F2284642E000BFAB
:1049C0009F26C4F20206B1422CDC7026C4F2020615
:1049D000B1423CD0882635E040F29F46C4F2020640
:1049E000B14227DC40F27046C4F20206B1422ED03A
:1049F00040F2884626E000BF816C0029ACD1AEE7CA
:104A00004026C4F20206B14221D058261AE000BF67
:104A100040F24046C4F20206B14218D040F2584675
:104A200010E000BFA026C4F20206B1420FD0B826A3
:104A300008E000BF40F2A046C4F20206B14206D030
:104A400040F2B846C4F20206B14218BF02270E680F
:104A50003E423CD0AB6090F83530042B0B681DD142
:104A600023F016030B604B6923F080034B61036C4A
:104A70000BB9836C1BB10B6823F008030B603F215B
:104A80009140A960012180F83510016D00294FF097
:104A9000000280F8342057D15AE000BF5A030A6858
:104AA0000CD4D2050ED40A6822F010020A6001214B
:104AB00080F83510002180F8341003E0110301D490
:104AC000416C00E0C16B11B1044688472046416D3E
:104AD00000293DD0416DC90734D0042180F835103C
:104AE00001684FEA98220B6823F001030B60019BD9
:104AF0000133019393421AD80B68DB0717D0019B4F
:104B000001330193934212D80B68DB070FD0019B4E
:104B10000133019393420AD80B68DB0707D0019B4E
:104B200001330193934202D80B68DB07DFD1096898
:104B3000C9074FF0030108BF012180F8351000219B
:104B400080F83410C16C19B102B0BDE8F0470847D5
:104B500002B0BDE8F08700BFD90301D4416CF2E791
:104B6000C16BF0E70B680423934033427FF4FFAD41
:104B70006DE600BF0B686AE62DE9F041044600F0DF
:104B800067FEFCB140F26F4805462068C4F2020897
:104B900040451BDC9F21C4F20201884232DC5721D0
:104BA000C4F20201884259DC1021C4F20201884299
:104BB00000F083802821C4F20201884200F07D8049
:104BC000402175E00120BDE8F08100BF45F22F4192
:104BD000C5F60201884229DC40F2B741C4F2020165
:104BE000884247DC40F27041C4F20201884264D03E
:104BF00040F28841C4F2020188425ED040F2A041F6
:104C000056E000BF40F22741C4F20201884241DC75
:104C1000A021C4F2020188424FD0B821C4F202019F
:104C200088424AD040F2104142E000BF45F26B4159
:104C3000C5F60201884200F3B38045F23041C5F663
:104C40000201884200F0BF8045F24441C5F60201EE
:104C5000884200F0B88045F25841AFE05821C4F2D4
:104C60000201884229D07021C4F20201884224D076
:104C700088211DE040F2B841C4F2020188421CD0F4
:104C800045F20841C5F60201884200F09C8045F2D9
:104C90001C4193E040F22841C4F2020188420CD04A
:104CA00040F24041C4F20201884206D040F258412D
:104CB000C4F20201884240F01B81022184F83510C1
:104CC000002184F83410016821F00101016000BF67
:104CD00020680168C9070DD000F0BAFD401B062806
:104CE000F6D320206065032084F835000120BDE85C
:104CF000F08100BF48F23F0204F108060168CFF6D8
:104D00001062114065694CCE1143A2691943E369F1
:104D10003143266A0D43616A2B43042943EA0603A3
:104D200043EA020303D1D4E90B652E43334341F236
:104D30000006C5F600463668B6F1005F0FD3656819
:104D4000A5F129061F2E00F235820127B7403F2624
:104D5000CCF2C036374200F02D8243F4801303605A
:104D60000429436923F0070341EA030140F0DC8092
:104D7000D4E90A53002B41EA050100F0D580B2F5D1
:104D8000005F00F0B780002A40F0C080022D00F0E4
:104D9000C080012D00F0B480002D00F0BA80C3E087
:104DA00045F26C41C5F6020188420CD045F28041C3
:104DB000C5F60201884206D045F29441C5F60201CB
:104DC000884240F0958004F1080E022184F83510E5
:104DD000002184F834100168A3699EE80450A2F110
:104DE0008005E769B5FA85F566696D09402A4FEADD
:104DF000853543EA07026FF3101142EA060208BF45
:104E0000102541EADC0142EA0E02236A294341EA05
:104E1000D20141EA131140F80819C0B2CD2148432C
:104E20003C2101EA9020E0652046FDF789FCE16D18
:104E3000012201F01F0102FA01F1416020684045A2
:104E400000F381809F21C4F20201884214DC5721C3
:104E5000C4F20201884227DC1021C4F20201884218
:104E600000F0C7802821C4F20201884200F0C1800E
:104E70004021C4F20201B9E040F22741C4F202012C
:104E8000884221DCA021C4F20201884200F0B180F6
:104E9000B821C4F20201884200F0AB8040F2104118
:104EA000C4F20201A2E000BF5821C4F2020188420C
:104EB00000F09F807021C4F20201884200F09980C6
:104EC0008821C4F2020191E040F22841C4F20201BB
:104ED000884200F08E8040F24041C4F202018842D4
:104EE00000F0878040F25841C4F202017EE000BF2A
:104EF0004020F7E6032D17D8DFE805F00E0B0E0271
:104F0000A3F1C072B2FA82F2520904E0032D03D376
:104F10000AD1C3F300623AB140206065012084F8F1
:104F20003500BDE8F08100BF41612046FDF708FC77
:104F3000E16D3F2201F01F0102FA01F1816020685A
:104F400040457FF77FAF45F22F41C5F60201884209
:104F500016DC40F2B741C4F20201884226DC40F27E
:104F60007041C4F20201884243D040F28841C4F249
:104F7000020188423DD040F2A041C4F2020135E076
:104F800045F26B41C5F6020188421FDC45F2304113
:104F9000C5F6020188422CD045F24441C5F6020113
:104FA000884226D045F258411EE000BF40F2B84189
:104FB000C4F2020188421CD045F20841C5F6020144
:104FC000884216D045F21C410EE000BF45F26C410C
:104FD000C5F6020188420CD045F29441C5F60201A3
:104FE000884206D045F28041C5F60201884240F071
:104FF000D98045F2574C45F6FC0EC5F6020CC5F6B5
:10500000020E60450EDC45F22F41C5F602018842D2
:1050100018DC45F20841C5F60201884228D045F265
:105020001C4121E045F27F41C5F60201884213DCB4
:1050300045F25841C5F60201884219D045F26C414B
:1050400012E000BF45F23041C5F6020188420FD0A0
:1050500045F2444108E000BF45F29441C5F6020123
:10506000884205D045F28041C5F60201884247D109
:1050700000F0FC014CF6CD420839CCF6CC42A1FB45
:105080000212AEF1FC05AEF17C061309A26803F032
:105090001F01802A4FF0010205EB8305256602FA05
:1050A00001F26666A26605D1002060602860726029
:1050B0001EE000BF6368D9B25F1E072F29607260CF
:1050C00016D84E1E082E19D260450EF1440237DC68
:1050D00045F22F41C5F60201884241DC45F2084104
:1050E000C5F60201884251D045F21C414AE000BF9A
:1050F00000206067C4E91B0054E000BFE06E4CE094
:1051000000F0F8014AF6AB221039CAF6AA22A1FB38
:10511000021240F20F43C4F202030825110998421B
:1051200003F1AA060B4688BF05EB121340F60005F3
:10513000B042C4F2020505F1800628BF0B46A5E780
:1051400045F27F41C5F60201884213DC45F2584121
:10515000C5F60201884219D045F26C4112E000BF49
:1051600045F23041C5F6020188420FD045F2444174
:1051700008E000BF45F28041C5F60201884205D033
:1051800045F29441C5F6020188421BD10EEB830023
:105190000121E066B1402267616700210160D4E926
:1051A0001C01416000206065012184F83510BDE8D4
:1051B000F08100BFA5F14F07042F38BF43F48013DF
:1051C000CDE500BF40F60000C4F2020000F1FC0E85
:1051D00000F5A072DAE7000030B110B590F8344065
:1051E000012C03D1022010BD01207047012480F85A
:1051F000344090F83540012C2CD1022480F8354001
:1052000000244465D0F800C0DCF8004024F001041C
:10521000CCF800400446FDF727FB40F20F4C206815
:10522000C4F2020C40F26F416045C4F2020119DC85
:105230006F23C4F20203984226DC3F23C4F2020328
:1052400098423DDC1023C4F2020398425FD0282329
:1052500058E000BF4FF400614165002180F8341030
:10526000012010BD88421BDC40F23F43C4F2020320
:1052700098422DDC40F21043C4F20203984246D01B
:1052800040F228433EE000BF9F23C4F2020398424D
:1052900028DC7023C4F20203984238D0882331E01E
:1052A00040F29F43C4F20203984223DC40F2704371
:1052B000C4F2020398422AD040F2884322E000BFA1
:1052C0004023C4F20203984221D058231AE000BFC1
:1052D00040F24043C4F20203984218D040F25843CF
:1052E00010E000BFA023C4F2020398420FD0B823FD
:1052F00008E000BF40F2B843C4F20203984206D06F
:1053000040F2A043C4F20203984240F02F810368A8
:105310000B2262F344030360226C1AB10823026873
:105320001A430260884219DC9F22C4F202029042B2
:1053300032DC5722C4F20202904259DC1022C4F23D
:105340000202904200F096802822C4F202029042AB
:1053500000F090804022C4F2020289E045F22F4220
:10536000C5F6020290422DDC40F2B742C4F20202BE
:1053700090424BDC40F27042C4F20202904279D07B
:1053800040F28842C4F20202904273D040F2A0423E
:10539000C4F202026CE000BF40F22742C4F20202F3
:1053A000904243DCA022C4F20202904262D0B822B2
:1053B000C4F2020290425DD040F21042C4F20202F6
:1053C00056E000BF45F26B42C5F6020290423FDC58
:1053D00045F23042C5F6020290424BD045F24442BB
:1053E000C5F60202904245D045F258423EE000BF69
:1053F0005822C4F2020290423CD07022C4F202024F
:10540000904237D08822C4F2020231E040F2B84222
:10541000C4F2020290422DD045F20842C5F60202C3
:10542000904227D045F21C4220E000BF40F22842C3
:10543000C4F2020290421DD040F24042C4F2020285
:10544000904217D040F25842C4F2020210E000BF6E
:1054500045F26C42C5F6020290420BD045F29442EE
:10546000C5F60202904205D045F28042C5F602021E
:10547000904274D1236E1A68D20303D51A6842F49D
:1054800080721A60E36E1BB11A6842F480721A606F
:10549000604511DC6F21C4F2020188421EDC3F210D
:1054A000C4F20201884235DC1021C4F202018842B4
:1054B00055D0282150E000BF88421BDC40F23F411C
:1054C000C4F2020188422DDC40F21041C4F2020114
:1054D000884244D040F228413EE000BF9F21C4F200
:1054E0000201884228DC7021C4F20201884236D0D1
:1054F000882131E040F29F41C4F20201884223DC5E
:1055000040F27041C4F20201884228D040F2884142
:1055100022E000BF4021C4F2020188421FD058217E
:105520001AE000BF40F24041C4F20201884216D0A6
:1055300040F2584110E000BFA021C4F202018842AD
:105540000DD0B82108E000BF40F2B841C4F202011A
:10555000884204D040F2A041C4F2020188420168AE
:1055600041F001010160002010BD00BF0268052369
:1055700063F343020260226C002A3FF4D3AE04239B
:10558000CDE6000000000000B0B50446322007F070
:1055900093FC082C0CD0042C08D100240421C5F65F
:1055A000020404F5805000F033F9C8B1B0BD00BF6B
:1055B00000240821C5F6020404F5805000F028F903
:1055C000002818BFB0BD0421204600F029F941F69B
:1055D0009D54C2F200442078A0B111A00CE000BF9D
:1055E00001212046012500F01BF941F69C54C2F22E
:1055F0000044207870B110A0012105F009FA0020C4
:105600002070B0BD09A00121012505F001FA257027
:10561000B0BD00BF0BA0012105F0FAF92570B0BDA7
:105620006C6564352E76616C3D3000006C656435C8
:105630002E76616C3D3100006C6564342E76616CB1
:105640003D3000006C6564342E76616C3D310000A5
:105650008821C5F600010A68024208BF7047086049
:10566000FFF792BF000000002DE9F04F83B00F68F4
:10567000002F00F0C98000F1264642F2004506F1F5
:10568000FF76C5F602050A22A8424FEAB62540F287
:10569000040C08BF092200F120030093092DC5F670
:1056A000000C38BF4FEAB622002400264FF0000855
:1056B00001920AE008F101080F6837FA08F206F1D2
:1056C000020604F1040400F09F80012202FA08FEA1
:1056D00017EA0E09EED0D1F804B003220BF003074D
:1056E000B2407D1E6FEA020A012D11D88268CD6892
:1056F00002EA0A02B5402A438260CBF300154268F1
:1057000022EA0E0205FA08F52A43426004E000BFCF
:10571000032F01D103271FE0C2688D6802EA0A0245
:10572000B540022F42EA0502C26015D16FF00302B4
:1057300004F01C0502EA580B009A0F2352F80BE004
:10574000AB400F692EEA0303AF403B4342F80B30F6
:10575000D1F804B00BF00307026807FA06F302EA77
:105760000A021BF4403F42EA03020260A2D044F264
:10577000F44340F2084EC5F60203C5F6000E0F25AD
:105780001A6842F002021A601A6802F002020292DB
:1057900028F00302029B04F00C0352F80E709D40A7
:1057A000AF43019D05FA03F33B4342F80E304FF03F
:1057B000B04EDEF800204B6842EA0907DD0258BF10
:1057C00022EA09079D02CEF80070DCF8002042EAC8
:1057D000090758BF22EA09079D03CCF80070DCF8DE
:1057E000802042EA090758BF22EA0907DB03CCF808
:1057F0008070DCF87C2042EA090758BF22EA0907DA
:10580000CCF87C7056E700BF03B0BDE8F08F000015
:105810000069084018BF0120704700000000000028
:10582000426902EA0103914341EA03418161704701
:10583000002A08BF090481617047000000000000D1
:1058400041F20000C5F600400068000C70470000FF
:1058500041F6A050C2F2004000687047000000000E
:1058600040F2140041F6A051C2F20040C2F20041E1
:1058700000780A68104408607047000000000000CB
:1058800080B5032000F010F901F02EFC44F218411D
:105890004DF63843C5F60201C0F600030A68C2F3AC
:1058A00003229A5C096801F00F0102F01F02595CA3
:1058B000D04040F22002C2F2004201F01F0120FA63
:1058C00001F1116040F21C01C2F2004108600320A6
:1058D00000F00AF800281CBF012080BD00F07CF811
:1058E000002080BD00000000B0B540F21405C2F2F7
:1058F00000452978F1B1044640F21C00C2F2004094
:105900004FF47A72B2FBF1F10068B0FBF1F001F0F4
:1059100063FF0F2C01464FF001000AD8002918BF81
:10592000B0BD4FF0FF300022214600F08DF800207E
:105930006C60B0BD0120B0BD10B54EF6A05E4378DE
:10594000CEF2000E90F800C04EF8083CDEF80030B1
:1059500023F00103CEF8003043684EF8043C037B8B
:10596000C27A817A447B120642EA0372837B42EA5E
:10597000C141C27B41EA8441447A41EA4341007A11
:1059800041EA024141EA042141EA400040EA0C00B8
:10599000CEF8000010BD00004EF62450CEF20000FC
:1059A000BFF35F8F016821F480310160002101673E
:1059B00070470000000000004EF6245140F0010046
:1059C000CEF200010867086840F480300860BFF339
:1059D0004F8FBFF36F8F704710B582B044F2F4441D
:1059E000C5F60204206840F002002060206800F044
:1059F000020001900198042000F056F8206840F45D
:105A000000402060206800F400400090009801F001
:105A1000BFFE022002B0BDE8104001F0C5BE00008C
:105A2000002848BF704700F01F01012202FA01F16F
:105A30004EF20012C0F34A10CEF2000242F82010DB
:105A4000704700000000000070B54EF60C5C4FF08F
:105A5000FF36CEF2000C00F1604505F56445DCF838
:105A60000030C3F3022E8EF00703042B28BF04235B
:105A7000BEF1030406FA03F321EA030100F00F0369
:105A800038BF0024043B0028634406FA04F048BFF2
:105A900003F10C05A14022EA000008430001287030
:105AA00070BD0000000000004EF60C514FF6FF03E1
:105AB000CEF200010A681A4060F30A2242F08060C8
:105AC00040F0FD7008607047B0B544F60C05C5F6AF
:105AD000020529684907296806D401F00701081A58
